:020000040C00EE
:100000000008001001020008B1020008FD0300080A
:10001000FD0A0008FF0300080104000800000000BA
:10002000000000000000000000000000B102000815
:10003000B102000800000000B1020008B10200088F
:10004000B1020008B1020008B1020008B1020008C4
:10005000B1020008B1020008B1020008B1020008B4
:10006000B1020008000000000000000000000000D5
:10007000B102000800000000B1020008B10200084F
:10008000B1020008B1020008B1020008B102000884
:10009000B1020008B1020008B1020008B102000874
:1000A000B1020008B1020008B1020008B102000864
:1000B000B1020008B1020008B1020008B102000854
:1000C000B1020008B1020008B1020008B102000844
:1000D000B1020008B1020008B1020008B102000834
:1000E000B1020008B1020008B1020008B102000824
:1000F000B1020008B1020008B1020008B102000814
:10010000B1020008B1020008B1020008B102000803
:10011000B1020008B1020008B1020008B1020008F3
:10012000B1020008B1020008B1020008B1020008E3
:10013000B1020008B1020008B1020008B1020008D3
:10014000B1020008B1020008B1020008B1020008C3
:10015000B1020008B1020008B1020008B1020008B3
:10016000000000000000000000000000000000008F
:10017000B1020008B1020008B1020008B102000893
:10018000B1020008B1020008B1020008B102000883
:10019000B1020008B1020008B1020008B102000873
:1001A000B1020008B1020008B1020008B102000863
:1001B000B1020008B1020008B1020008B102000853
:1001C000B1020008B1020008B1020008B102000843
:1001D000B1020008B1020008B102000800000000EE
:1001E000B1020008B1020008B102000805040008CD
:1001F000B102000800000000B10200080000000089
:10020000DFF88CD023488047234C244DAC4209DAD8
:1002100021686268A368043BA2BFC858D050FAE7BF
:100220000C34F3E71E4B1F4CA34208DA19685A68D6
:100230000020043AA4BF8850FBE70833F4E71A48CB
:1002400080471A488047000028E3000C0000002087
:10025000940E0000DCF1000C0000003000000000F3
:1002600028E3000C000800100000000028E3000C48
:100270000008001000000000B40E002088070000F5
:1002800000000030000E0000000800100000000018
:100290000008001021470008480200087802000802
:1002A00078020008900200083DA40008B50200088A
:1002B000FEE7000070B590B0294B1B680F9307ACA8
:1002C000284D0FCD0FC495E80F0084E80F000023E0
:1002D0000493059306930293039300F09BF8224E38
:1002E000002514E018200AF0CDF80690002404F050
:1002F000E3FC069B18550134182CF8D10FE0049844
:100300000AF0C8F8049502980AF0C4F8029504A807
:1003100000F0FCF90028FAD1069B002BE2D0304611
:1003200004F096FC04F04EFD0028E8D1059810304A
:1003300004F07AFE029007AB0193069B0093059AA6
:100340002B46049904F075FB0028D8D1059800F0DD
:1003500047FA1030039002A800F0EAF9CFE700BF97
:100360005CDE000814DC000868040020F0B589B0E9
:1003700000250495059550238DF80C3002278DF843
:100380000D7004268DF80E6001248DF80F408DF855
:1003900012404FF4803306938DF81C408DF81D40B9
:1003A0008DF81E408DF81F4003A803F02FFA02F0CD
:1003B00027FF4021384602F037FF304602F0B8FEF2
:1003C000284602F037FE204602F0DEFE04F092F8E6
:1003D000084A6B4607CA83E8070000F04AFB20463C
:1003E00000F023FB044A136843F44003136009B090
:1003F000F0BD00BF34DC000818820248FEE7FEE7CB
:10040000FEE7000008B5024801F000FD08BD00BF8E
:100410000000002008B5174800F0E6FE164BDA6829
:10042000C2F30222C2F10701062928BF0621931D4B
:10043000062B8CBF02F1FF3200224FF0FF338B40BE
:10044000DB4303F03F0393409B00DBB20B4A82F88F
:100450006B334FF40063C2F88C31D360054B4FF41B
:1004600016529A62082283F82E20054B1B68DB681F
:10047000984708BD0000002000ED00E000E100E02A
:100480003C1200207047704708B5084B93F83E3186
:1004900013F0010F00D108BDFFF7BCFF034B93F829
:1004A0003E216FF3000283F83E21F4E73C12002066
:1004B00008B540220C49812000F0DCFE40220B49A7
:1004C000822000F0D7FE40220949032000F0D2FE2E
:1004D000084801F02BFF084A92F83E3143F001032F
:1004E00082F83E3108BD00BFBC0F0020FC0F002089
:1004F0007C0F0020100000203C12002008B50248AC
:1005000002F0DEF808BD00BF100000207047704701
:1005100070470000030A022B0AD0032B0BD0012BDB
:1005200002D00020034601E012200C4B13607047FC
:100530003E200B4BFAE7C0B2012808D020B10228B8
:1005400008D000200346F1E70420064BEEE75820D0
:10055000054BEBE72020054BE8E700BF40DC000837
:1005600054DC000894DC0008C0DC00089CDC0008B7
:1005700010B5074C02E0204601F0ACFF204601F028
:10058000D3FF0028F7D0024802F008F810BD00BFE2
:1005900010000020F0B593B00746354B1B6811934F
:1005A0002422002108A80AF01FFB002501950295CE
:1005B0000395049505950695CDF81B501B230093D4
:1005C000FFF7D6FF0446FF280DDD232DF8D9FFF7EE
:1005D000CFFF022819D00220119A254B1B689A429E
:1005E00044D113B0F0BD022838D0C6B2304600F076
:1005F0007BF908B93D2C33D16B1C12AA154405F8C0
:10060000286C232BE3D81D46DAE76B4601AA242188
:1006100008A800F073F928B3009B1B2B01D002201F
:10062000DAE79DF806209DF805301B0243EA0243F5
:100630009DF8042013437B60182009F023FFB86065
:1006400090B112AD044655F8410D6968AA68EB688F
:100650000FC42869696903C40020BDE70220BBE715
:100660000120B9E70320B7E70420B5E700F052FA0C
:100670005CDE00082DE9F04782B00646D0F8048021
:10068000002400940121404609F072FE019458B301
:10069000074600F1FF3925467368AB4226D9FFF7BC
:1006A00067FF0446FF28F7DC03282BD05FFA80FAA7
:1006B000504600F019F908B93D2C25D1013509F84B
:1006C00001AFE9E76B4601AA4146384600F088F9D8
:1006D00030B1009B7360019B23B1336000240AE0BA
:1006E000072408E0052406E0052407E0FFF740FFA3
:1006F0000328E7D00624384609F0CCFE204602B095
:10070000BDE8F0870624F6E70124F4E710B50446B7
:10071000FFF72EFF0128FBD12046FFF73BFF0346E2
:1007200008B1184610BD2046FFF7A4FF0346F8E7BE
:1007300030B583B0044602AA002342F8043D416864
:10074000006800F0ADF80546019B83B10C4C022116
:10075000204601F053FEAAB20199204601F02CFE7A
:100760000321204601F04AFE002003B030BD63683B
:1007700023B1002814BF08200920F6E70820F4E779
:1007800010000020F0B5A3B0054614461F46289E71
:10079000124B1B68219301A80AF028F93B7803F05B
:1007A0000703F05C0DF103030DF1830113F8012F32
:1007B00042401A708B42F9D1204609F063FE28604E
:1007C000224601A90AF012F90020219A034B1B6866
:1007D0009A4201D123B0F0BD00F09CF95CDE000824
:1007E00070470000002954D0F0B50F46EBB10178F6
:1007F0008C082A4D2C5D1470012B16D03D25274CFA
:100800004FF0000E1EE001F03F01615C5170022BC1
:100810000BD026BB9570032B07D0043202F8015C85
:10082000043B02D016B900231370F0BD771EFAD036
:1008300010F8031F4FEA910C14F80CC082F800C0A6
:10084000012BF2D009017E1EDDD090F801C001EB32
:100850001C1101F03F01615C5170022BE5D0417821
:100860008900BE1E1ABF8778BF097746394401F058
:100870003F01615C9170032BD7D0002ECDD00432A4
:10088000817801F03F01615C02F8011C043BCDD18D
:10089000CBE70BB100231370704700BF1CDD0008CD
:1008A0002DE9F0418C1C0F4BA3FB04346408A40019
:1008B000651CA94204D9002515602846BDE8F081D1
:1008C00017460E468046284609F0DCFD38600028B1
:1008D000F3D02B46024631464046FFF783FF2546BC
:1008E000EBE700BFABAAAAAA034B184490F840005C
:1008F000C043C0F3C01070471CDD00082DE9F04173
:10090000D3F800C0012963D90578344C2C4494F9FC
:100910004060002E5EDB4578304C2C4494F940E07A
:10092000BEF1000F58DB65462C4F21E0042903D1AE
:10093000E2783D2A00D10439ACEB05051D60B1FA1F
:1009400081F04009BDE8F0810429F4D0F4E70439CE
:100950000129F1D926793E4496F94060002EEBDB5F
:1009600064793C4494F940E00430BEF1000FE3DBCD
:10097000044635B14FEA2E1848EA86061670013D46
:1009800001320229D8D0A6783D2ECFD03E4496F928
:100990004080B8F1000FCFDB3DB14FEAA80646EA30
:1009A0000E1E82F800E0013D01320329C4D0E67832
:1009B0003D2EC9D03E4496F94060002EBCDB002D90
:1009C000C5D046EA881882F80080013D0132BEE7B2
:1009D0006546B1E76546AFE76546ADE71CDD000853
:1009E000F0B583B007460C4615461E46880800EB56
:1009F00040000230019009F045FD286088B101AB4C
:100A0000024621463846FFF779FF044618B14EB139
:100A1000019B336006E0286809F03CFD00232B6051
:100A200000E00124204603B0F0BDBFF34F8FBFF3B9
:100A30006F8F4FF0E023D3F8943D002814BF0522B8
:100A4000012213434FF0E022C2F8943DBFF34F8FD1
:100A5000BFF36F8F7047BFF34F8FBFF36F8F4FF0B0
:100A6000E0230022C3F8942DBFF34F8FBFF36F8FA5
:100A7000704770B485B004AB03E90700019A029B8C
:100A80009DF80C100E46092938BF0926B2F1805F87
:100A900008D3B2F1804F2AD3B2F1C04F34BF05243E
:100AA000072400E002249DF80D5005F007054FF0E3
:100AB000E020C0F8985DD0F8A05D25F00105C0F8F1
:100AC000A05DF240B240C0F89C2D180600F0B8506E
:100AD000220471B90021C3F3C013034313430B4332
:100AE0004FF0E022C2F8A03D05B070BC704706246C
:100AF000D9E70139490001F03E01ECE74FF0E0236E
:100B0000D3F8283D13F0800F1CBF4FF0E023D3F83B
:100B1000343DFEE7BFF34F8F0549CA6802F4E06237
:100B2000044B1343CB60BFF34F8F00BFFDE700BF03
:100B300000ED00E00400FA0510B5074C23685B6A7D
:100B4000012180209847012384F83B3123689B6A68
:100B500018210020984710BD3C12002030B583B00A
:100B60000023ADF80230A14B5C88FFF7C7FCA04B17
:100B700093F83E3113F0020F58D0E4B29B4B5B78F0
:100B80000C2B00F27481DFE813F089000D00720174
:100B900017017201D8005300FE004200E700700008
:100BA00001016F01914B1B7803F00303022B08D066
:100BB00053BB8F4B93F83E216FF3820283F83E21A3
:100BC0002DE08A4B98888B4B1B78DBB2042B00D02E
:100BD000B8B900F00F0386492C2202FB0312127AE7
:100BE00012F0010F0DD00A462C2101FB0323197AC4
:100BF0006FF38201197213685B6A0021C0B29847D3
:100C00000DE0FFF799FF0AE0FFF796FF07E07A494A
:100C1000A1F239131B681B6B012200209847744A0C
:100C200092F83E316FF3410382F83E3103B030BD9C
:100C30006E4B998801AAC9B25888FFF76BFC88B13E
:100C40006A4AD488844228BF0446694D2B681B6BCE
:100C50002246019900209847241AAC62019B034464
:100C6000EB62DCE7FFF768FFD9E7624B1B78DBB28A
:100C7000042B0BD15D4B9B8803F59C735C490A6880
:100C8000146B012219440020A047C8E7594B1B7878
:100C9000DBB2032BC3D1FFF74FFFC0E7534B1B78E9
:100CA00013F0030311D1524A92F83E31C3F380018D
:100CB000C3F3C00343EA410302A921F8063D1368C8
:100CC0001B6B022200209847A9E7012B23D0022B9F
:100CD00030D1464B9B88474A1278D2B2042A00D0C2
:100CE00043BB03F00F0342492C2202FB0312127A8A
:100CF00012F0010F1ED00A462C2101FB03231B7AA0
:100D0000C3F3800302A921F8063D13681B6B02227E
:100D10000020984783E7374B1B78DBB2042B09D1BF
:100D2000002002A921F8060D314B1B681B6B022223
:100D3000984774E7FFF700FF71E74CB92D4B02228B
:100D40001A702B4B1B689B6900212046984766E769
:100D5000284B03221A70F4E7254B83F83941FFF73B
:100D6000A7FB1CB9234B03221A7058E7204B93F8BA
:100D70003E3113F0010F03D01E4B04221A704EE7D0
:100D8000FFF7DAFE4BE7FFF7D7FE48E7194B1B7872
:100D9000DBB2042B08D0174B1B78DBB2032B7FF49C
:100DA0003EAFFFF7C9FE3AE7104A9188104B0B445B
:100DB000528883F8382132E7022C13D00D4B1B7870
:100DC000DBB2042B1AD00B4B1B78DBB2032B06D102
:100DD0002CB9064B1B7803F00303022B37D0FFF727
:100DE000ABFE1CE7FFF7A8FE19E700BF8C1500203B
:100DF0003C120020891500207513002054B1012CED
:100E00007FF40DAF1B4A92F83E3143F0040382F8A1
:100E10003E3104E7184B988800F00F0315492C2247
:100E200002FB0312127A12F0010F0DD011492C228D
:100E300002FB03131A7A42F004021A720B685B6A0F
:100E40000121C0B29847EAE6FFF776FEE7E60A4BD3
:100E50009B88DBB2002BC2D1064A137A43F004030D
:100E60001372FFF769FEDAE6FFF766FED7E6FFF7D3
:100E700063FED4E63C1200208C15002010B50D4B0B
:100E800093F83B31022B09D10A4C23689B6A00215D
:100E900008469847052384F83B310AE0032B08D124
:100EA000044C23689B6A182120799847012384F811
:100EB0003B3110BD3C12002010B50F4B93F83B3175
:100EC000042B0BD0052B08D10B4C23689B6A1821EF
:100ED00020799847012384F83B3110BDFFF73EFE8F
:100EE000054C23681B6B00221146104698470323CC
:100EF00084F83B31F1E700BF3C12002010B51A4CDA
:100F00002368DB6A082219490020984794F83E318B
:100F100043F0020384F83E31082800D010BD134B83
:100F2000D98869B1114B93F90030002B14DB0E4BBB
:100F3000042283F83B211B689B6A00209847EDE759
:100F4000032384F83B31FFF709FE23681B6B002263
:100F5000114610469847E1E7034B022283F83B21F4
:100F6000FFF7FCFDDAE700BF3C1200208C150020E3
:100F70002DE9F041092847D8DFE800F05C544B4EDA
:100F80000546867E4648454B02221A70444B01278F
:100F900083F83B7193F83E216FF3820283F83E2180
:100FA00000241E464FF02C0801E00134013708FBF5
:100FB00004631A896FF304121A811A896FF3C3024A
:100FC0001A811A7A6FF382021A72002CEDD0D3B212
:100FD00013F0010F0BD008FB046533681B6A2879F6
:100FE00098472B7A03F0FE036FF341032B72062F11
:100FF000DBDD2B4B002283F8392183F838211A6876
:10100000926A182118799047BDE8F081FFF77EFABF
:10101000FAE7FFF737FAF7E7204B01221A70FFF7DC
:1010200032FAF1E700201D4B18701D4B1B681B6A3C
:101030009847E9E70125194B1D70194C4FF4A07230
:101040000021204609F0D0FD164B236084F83B5167
:10105000154A22624FF48072626214496161A26192
:10106000032222722189402262F38C112181DB69E3
:10107000002108469847C7E7094B93F83A21074BE8
:101080001A70FFF744FABFE7044B1978044A82F854
:101090003A1105221A70FFF73BFAB5E789150020CF
:1010A0003C12002060DE00083C1000203C110020B3
:1010B000F8B500F00F044A4B93F83C6193F83D51AA
:1010C00083F83C4120F07F0083F83D01012915D0D1
:1010D00039B1022938D0424B83F83C6183F83D5145
:1010E000F8BD3F4A2C2303FB04231A896FF3C30284
:1010F0001A81002CEFD1FFF701FFECE7384A2C23CF
:1011000003FB04231A8942F020021A81DB6863B9C9
:10111000334B2C2707FB043700223A611B68DB6A3C
:10112000BA69796938799847F8602D4A2C2303FB0E
:10113000042423896FF3C303238192F83C31002BED
:10114000C9D1FFF7B9FEC6E7254A2C2303FB0423C8
:101150009A6A7AB1224B2C2101FB04341B681B6B69
:10116000E16A20799847A26A121AA262E36A0344EC
:10117000E362B5E71A4A2C2303FB0423187910F025
:101180000F0F1AD12C2303FB0423DB69ABB1154AE3
:10119000D288934211D012492C2202FB04121289E8
:1011A000C2F38612B3FBF2F102FB11332BB90C4BE5
:1011B0001B681B6B002211469847094B2C2202FB2F
:1011C00004340021E161228961F30412228193F841
:1011D0003C31002B7FF47FAFFFF750FE7BE700BF71
:1011E0003C1200208C15002038B50546164C4FF4F3
:1011F000A0720021204609F0F7FC144B00221A705F
:10120000134B2360012284F83B21124A22624FF4DF
:101210008072626210496161A26103222272228996
:10122000402161F38C1222815B682846984738B9C7
:101230002368DB694022002108469847002038BD1A
:101240004FF0FF30FBE700BF3C1200208915002063
:1012500060DE00083C1000203C11002008B5044B63
:101260001B68DB6B9847003018BF012008BD00BF2A
:101270003C12002010B400F00F0310F0800F06485D
:101280004FF02C0404FB030319BF19625A62596121
:101290009A615DF8044B70473C120020244B03EB2D
:1012A0008003D3F8C4311B6813F4004F00D170479A
:1012B0001F4A342303FB00235B6A002BF7D0F0B5F1
:1012C000D2F8E0715FEA910C0AD00023342505FBC7
:1012D00000253C686A6A42F8234001339C45F8D1F6
:1012E00021F00306B14217D03D6815D94FEA8C03AF
:1012F0009E1B06EB010E00240D4A342707FB002736
:101300004FF0FF0C0CFA04F22A40E2407E6AF254DD
:10131000083401337345F5D1054B342202FB00300C
:10132000C36A0B44C362436A19444162F0BD00BF03
:101330008013002082B000230193019B43F020031F
:101340000193019B60F38A1301930C4BD3F8A031F6
:10135000019A1A614FF47A73013BFDD1074BD3F820
:10136000A02113690193019B13F0200FF9D140F2E2
:10137000E933013BFDD102B0704700BF801300206C
:1013800082B000230193019B43F0100301930B4BA8
:10139000D3F8A02101991161D3F8A0214FF47A73F9
:1013A000013BFDD113690193019B13F0100FF5D19F
:1013B00040F2E933013BFDD102B0704780130020B9
:1013C00030B40021046B826A8368C3F31203A51A48
:1013D0009D4286BF9B1883628462037813F00F0FCF
:1013E0002AD1012363F3D44141F0C04164F30601E3
:1013F0001C4B1B685B7B4BB9037803F00F021A4B45
:1014000003EB8203D3F8C431426A5A61164A037867
:1014100003F00F0302EB8303D3F8C431196103789F
:1014200003F00F0302EB8302D2F8C421136843F0E8
:101430000443136030BC7047836A2BB96FF3120109
:10144000012363F3DC41D3E7C26A9B1A4268C2F30B
:10145000C6241A19013AB2FBF4F262F3DC4163F3D9
:101460001201C5E77C1300208013002070B4002116
:10147000037803F00F036A33304A52F823301A68B6
:10148000056B846A8368C3F312032E1B9E4232BF2E
:1014900085621B198362836A33B3047814F00F0FDB
:1014A0003AD1012464F3DC41C46A1B1B63F31201CB
:1014B000234B1B685C7B44B9047804F00F046A3446
:1014C0001E4D55F82440456A65615B7B012B10D1A8
:1014D0001A4BD3F8A4516E6B037803F00F04012369
:1014E000A34033436B6304E06FF31201012363F302
:1014F000DC41124C037803F00F036A3354F82330B5
:10150000196142F00442037803F00F036A3354F880
:1015100023301A6070BC7047C56A5C1B64F312010B
:101520004468C4F3C6245B1B651EADB215FA83F391
:1015300093FBF4F363F3DC41BAE700BF80130020B0
:101540007C1300201F206FF3451040F4E070C0F3BF
:1015500008007047044BD3F8A42153686FF341038C
:1015600053600020704700BF80130020044BD3F865
:10157000A421536843F0020353600020704700BF6A
:101580008013002000F00F00134A342303FB0023D4
:101590005B6813F0100F1AD1342303FB00231B796F
:1015A00013F0040F15D070B5342606FB00235A69DA
:1015B000914228BF114619630024DC629C62DA68FC
:1015C0005A621C611846FFF7FBFE204670BD0120E1
:1015D00070470120704700BF80130020044BD3F8F0
:1015E000A4311A6811B960F30A121A60002070471A
:1015F0008013002000F00F0251B310F0800F18D1BB
:101600002A4B342101FB02F1595C01F00F0103EB7D
:101610008103D3F8C4110B6843F400130B60234912
:10162000342303FB0212137943F0200313710020CB
:1016300070471E49342303FB02F3CB5C03F00F0316
:101640006A3351F823100B6843F400130B60E6E78C
:1016500010F0800F19D1154B342101FB02F1595CB8
:1016600001F00F0103EB8103D3F8C4110B6823F0E1
:10167000815343F080530B600C4B342101FB023249
:1016800013796FF345131371D1E70849342303FB32
:1016900002F3CB5C03F00F036A3351F823100B689D
:1016A00023F0815343F080530B60E5E78013002063
:1016B00000F00F00342303FB00F3114AD356002B34
:1016C00016DB0F4A342303FB00235A686FF304121E
:1016D0005A600B4A342303FB00231A796FF3451237
:1016E0001A710020186198619862D8621863704777
:1016F000342303FB00235A686FF3C3025A60E8E700
:1017000080130020F0B500F00F00424CD4F8A43153
:10171000DB69342202FB0042127912F0040F76D00A
:1017200000211F46A646342505FB00F56219645DBD
:1017300004F00F044FF0010C0CFA04FC6FF3CF31EE
:1017400041F090416FF35551167906F0FB066FF3A7
:101750004516167156686FF30416566056686FF397
:10176000C30656601EF90520002A06DB342202FB60
:1017700000E2127912F0030F15D1264D6A3455F8A4
:101780002420116023EA0C0262F30F07342202FBCB
:1017900000F2AA56002A06DA342202FB005212791D
:1017A00012F0030F16D11B4A342404FB00F4145D1D
:1017B00004F00F0402EB8402D2F8C4211160C3F3D9
:1017C0000F4323EA0C0363F31F47134B1B685B7B38
:1017D000012B14D00F4BD3F8A421D761342202FB84
:1017E00000308188C1F38311012202FA01F1B3F8BC
:1017F000FC2122EA0102A3F8FC210020F0BD054BE8
:10180000D3F8A421536B23EA0C035363E2E70120CE
:10181000F4E700BF801300207C130020034BD3F8B3
:10182000A4319868C0F30D20704700BF80130020DA
:10183000044B93F8FE0100F00500052814BF0020BA
:10184000012070478013002008B50748D0F8A42174
:10185000536843F0020353604FF40272002109F011
:10186000C3F9002008BD00BF801300202DE9F04F10
:1018700083B0074689461646DFF87082D8F8A4314F
:10188000DB6901939A4600F00F05342202FB05FB49
:101890000BEB08040021204609F0A6F90BF80870AC
:1018A000237943F004032371636866F3D1236360F3
:1018B000002F44D02146A4684FF6C07C6CF312047C
:1018C0008C6018F80B3003F00F031802854A1418C7
:1018D000CC6102F5E0620244CA60834A52F82300F8
:1018E000086202EB8302D2694A6117F0800F43D08D
:1018F0006A337E4A52F82340206840F4004069F37E
:101900009340B9F1000F00F0E28066F30A0040F066
:1019100080506FF35550754BB3F8FC1111F0010F67
:1019200071D00123022211426FD0520092B20133D2
:10193000DBB2072BF7D1114267D0002369E06B4A75
:10194000342303FB05F3D1188C68402767F3120496
:101950008C60D35C03F00F031802624A1418CC6148
:1019600002F5E0620244CA605F4A52F8230008624E
:1019700002EB8302D2694A61B9F1000F00F09E8048
:10198000342303FB05F3594AD356002B24DB574B72
:10199000342202FB05F29A5C02F00F0203EB820391
:1019A000D3F8C421136843F4004369F3934366F307
:1019B0000A0343F080536FF355531360342303FB42
:1019C00005F54A4B5B5D03F00F0201239340019A3A
:1019D00043EA124363F31F4A444BD3F8A431C3F8DC
:1019E0001CA0002003B0BDE8F08F082E8FD1032388
:1019F00063F30A008BE7012363F30A0087E70223FE
:101A000063F30A0083E7002301220A433749A1F860
:101A1000FC2103F00F03354F342202FB05F2B91805
:101A2000B1F804C063F3891CA1F804C063F39950B2
:101A30002060B95C01F00F0101238B400198034342
:101A400063F30F0ABB56002B16DB284B03EB810117
:101A5000D1F8C421136843F4004369F39343B9F107
:101A6000000FA4D1102E25D01AD9202E1ED0402E22
:101A70009FD16FF30A039CE7B9F1000FACD11B4B68
:101A8000342202FB05F29A5C02F00F0203EB8203A0
:101A9000D3F8C421136843F400436FF39343E1E7A1
:101AA000082E86D1032161F30A0382E7012161F345
:101AB0000A037EE7022161F30A037AE76A330B4ADD
:101AC00052F82340206840F400406FF39340102EFA
:101AD00095D08AD9202E8ED0402E7FF418AF6FF388
:101AE0000A0014E700000030B40E0020801300202C
:101AF00070B5064608460F4B342404FB06342569AE
:101B0000954228BF1546E168A3692A46194408F0A2
:101B10006DFF23695B1B23613BB9064B342202FB3B
:101B200006360023B361284670BDA3692B44A36128
:101B3000F9E700BF801300202DE9F04100F00F0508
:101B40001748342303FB05031B7913F0040F21D03E
:101B5000342303FB05035B6813F0080F1DD14FF01E
:101B6000340808FB0504266A964228BF164632460A
:101B7000E06908F03BFFE369636226630023A36228
:101B8000E362636843F0080363602046FFF76EFC7E
:101B9000206B00E00120BDE8F0810020FBE700BFE2
:101BA0008013002030B4057BC5B1002318460D4CCE
:101BB000342104E001200133DAB2AA420FD201FB42
:101BC0000342526812F0080FF4D101FB034252683D
:101BD000C2F30012002A18BF0120ECE7284630BCEF
:101BE000704700BF8013002070B500240A4E96F89D
:101BF000FE5105F00105FFF7D5FF96F8FE31C3F35E
:101C0000800363F3000465F3410460F3820401235D
:101C100063F3C404204670BD8013002008B5034858
:101C200001F00AF901F048FB08BD00BF8000002068
:101C300038B50446FFF7F2FF404B1C60404800F106
:101C40001803011F3430402243F8042F41F8042FB9
:101C50008342F9D13B4D4FF402720021284608F02F
:101C6000C3FF6368C5F80032A368C5F80432206872
:101C7000C5F8A00100F50063C5F8A43100F51062B5
:101C800005F5D47305F5E27143F8042B20328B423D
:101C9000FAD100F530622C4B05F5F07143F8042BB6
:101CA00020328B42FAD100F58052284B05F5FE75A3
:101CB00043F8042B02F58052AB42F9D1836843F01C
:101CC0008103627B002A35D143F0200383601D4DE0
:101CD000D5F8A021D36843F0804343F48073D360E8
:101CE000D5F8A421136843F003036FF3D7531360AF
:101CF000D5F8A421536843F0020353601020FFF786
:101D000019FBFFF73DFBD5F8A03100229A61D5F809
:101D1000A0314FF0FF325A610D4B627B012A08BFA0
:101D200043F0100343F44023064AD2F8A021936104
:101D3000002038BD6FF34513C8E700BF7C130020B7
:101D4000B40E0020801300204415002060150020F0
:101D50000E3C00C008B5034801F062F801F0B4FA87
:101D600008BD00BF8000002000230D280AD8DFE84E
:101D700000F0070909090E091114171A1C1F09227E
:101D80004FF080430D4AD2F8A021536170474FF4C1
:101D90008053F7E74FF40063F4E74FF00043F1E7B7
:101DA0004FF00043EEE70823ECE74FF48063E9E7E8
:101DB0004FF40053E6E74FF40023E3E780130020DD
:101DC0006A31024B53F8213098607047801300202D
:101DD000034B03EB8101D1F8C4319860704700BF19
:101DE00080130020034BD3F8A4215369184350619A
:101DF000704700BF80130020034BD3F8A421136960
:101E000018431061704700BF801300202DE9F04F88
:101E100085B08346C34BD3F8A0319C695E692640E8
:101E2000F3B2019313F0080F07D0BE4BD3F8003282
:101E3000092098470920FFF797FF9BF80D30012BE9
:101E400047D0C6F3072414F0040F6AD114F0080F2A
:101E500007D0B44BD3F80032062098470620FFF78E
:101E600083FFC6F30763DDB213F0800F07D0AD4BDD
:101E7000D3F80032082098470820FFF775FF15F0C7
:101E8000400F0DD0A74B93F8FE2142F0040283F8D7
:101E9000FE21D3F80032002098470020FFF764FFAE
:101EA00014F0100F41D114F0200F40F0B180C6F3B0
:101EB000074616F0040F40F0C78016F0080F40F0F8
:101EC0007F81019B13F0040F40F0118205B0BDE843
:101ED000F08F019B13F0100FB3D06FF30414914BEC
:101EE000D3F8A0219461D3F8A031186AC0F343431A
:101EF000022B08D0062B0DD044F01004894BD3F8E8
:101F0000A0319C619DE7C0F30A1100F00F00FFF7BC
:101F1000C5F9F1E7C0F30A1100F00F00FFF7BEF9B1
:101F2000EAE70A20FFF720FF90E77E48D0F8A421D7
:101F3000536843F00103536000F5E27200F5F0705E
:101F400052F8041B0B6843F000636FF355530B60AA
:101F50008242F5D1734DD5F8A03140225A6210204B
:101F6000002360F31F4362F30F03D5F8A0219362AF
:101F7000D5F8A0316C4AC3F80421D5F8A03110324D
:101F8000C3F80821D5F8A0311032C3F80C21D5F8D8
:101F9000A0311032C3F81021D5F8A0311032C3F8A7
:101FA0001421D5F8A0311032C3F81821FFF7C2F977
:101FB0000020FFF7BFF9FFF7E3F9D5F8A4314FF0A0
:101FC0000112DA610F20FFF70DFF0F20FFF714FF5A
:101FD000D5F8A42113686FF30A1313609BF80D3032
:101FE000012B10D04F4B5A686FF304125A605A6895
:101FF0006FF3C3025A60D3F80032042098470420DC
:10200000FFF7B2FE4FE7D5F8A43100225A63E9E7A3
:10201000444CD4F8A82113686FF30A03136094F8B2
:10202000FE3143F0050384F8FE31D4F8003202207B
:102030009847D4F8A021D368092161F38D23D36098
:102040000B20FFF791FE32E7364BD3F8A4319A69A3
:1020500019691FFA82F9B9F1000F00F0AD804B4603
:102060000022029215461746DFF8B8804FF0340A76
:1020700003960E4629E0012940F0508114F0800FAC
:1020800054D114F0010F16D00AFB07831A6B9B6A18
:102090009A4240F08B800AFB07835A686FF3C302B1
:1020A0005A609BF80D30012B77D0D8F8043202210A
:1020B00045F0800098476A3758F827309C60013512
:1020C000EDB22F4659FA05F375D013F0010FF6D093
:1020D00007F16A0358F823209168D8F8A4315C6BA3
:1020E0000AFB07F318F8033003F00F03DC40E401A8
:1020F000E4B234430C409BF80D100029BBD11369A6
:10210000029314F0010FD6D0029B33F06043BBD191
:102110000AFB0783986ADA6A811AD8625A6A0A4403
:102120005A62B1E7801300205000100003F16A02E8
:1021300058F8222092690AFB0781886AC96AB0EBC5
:10214000010E19D00EF10300800892B282423CBF0A
:102150004FEA820E104678B1783358F823C0002138
:102160000AFB0782536A1B68CCF800300131536ABE
:10217000043353628142F5D10AFB0783DA6A724461
:10218000DA625A6A72445A6214F0010F93D09BF8D3
:102190000D30002B7FF478AFB6E7D8F8A4114B6B65
:1021A0000122BA4023EA02034B637EE70AFB078061
:1021B000FFF75CF97FE7039E0E20FFF7D5FD7CE675
:1021C000594BD3F8A4319A69DE695B690293002305
:1021D0000393C6F30F4616EA124600F08480334696
:1021E00000242546504F4FF0340AB04624E00AFB45
:1021F00005731A69D96A0A441A6148E00AFB057333
:102200001A6B9B6A9A4269D10AFB0573DA6A1A61F2
:102210005A686FF304125A60D7F80432012120463D
:10222000984707EB8505D5F8C4319E600134E4B2C8
:10223000254658FA04F356D013F0010FF6D007EBF9
:102240008503D3F8C4319E68029A16409BF80D208E
:102250000AB91B6903935FFA86F919F0080F27D0B2
:102260000AFB05731A796FF345121A719BF80D304A
:102270004BB90AFB0572039BC3F34173C3EB437372
:10228000DB00183313619BF80D30012BAFD00AFB34
:1022900005735A686FF304125A60D7F804320021AC
:1022A0000846984707EB8503D3F8C43108229A60A3
:1022B00019F0010FB5D09BF80D30002B9ED10AFB11
:1022C0000572D16A936A5B1A0398C0F312001B1A55
:1022D0001944D162516A0B4453628FE70AFB0570BF
:1022E000FFF76EF89DE70D20FFF73EFDE9E50E4B89
:1022F000D3F8A0315C6814F0040F0AD00A4B93F8AD
:10230000FE216FF3820283F8FE21D3F80032012010
:102310009847054BD3F8A0315C60D7E514F0010F66
:102320007FF4B2AEC7E600BF8013002010B50446AC
:10233000002343618361C361022383710373032319
:1023400083740121023000F0D7FB034608B9184618
:1023500010BD012104F1080000F0CEFB0346002867
:10236000F5D0012104F10E0000F0C6FB0346EEE7B4
:102370000F4B1B78DBB2042B16D18369B3B110B5B8
:102380000C4683780B4A03F00F0182F83C1123F0CE
:102390007F0382F83D31204608F072FD002281B2B1
:1023A000204601F0C7FA10BD022070470220704796
:1023B000891500203C12002038B50E4B1B78DBB28B
:1023C000042B13D183699BB115460C4683780A4AC6
:1023D00003F00F0182F83C1123F07F0382F83D31B6
:1023E00000222946204601F0A5FA00E0022038BD6F
:1023F0000220FCE7891500203C120020134B1B78BB
:10240000DBB2042B1CD18369EBB110B50C46837889
:102410000F4A03F00F0182F83C1123F07F0382F88A
:102420003D3100F0E5FA28B900F086FA00F006FA2E
:10243000034618B9204600F0FBFA0023184610BDE9
:102440000223184670470223FBE700BF89150020CE
:102450003C12002010B51D4B1B78DBB2042B2FD192
:10246000836983B3827802F00F03194981F83C3104
:1024700022F07F0281F83D212C2202FB031292F907
:102480000420002A07DB124A2C2101FB03239B892D
:102490003BB9002415E00A462C2101FB03239B8B4A
:1024A000F6E700F0A5FA044600F046FA0CB1002465
:1024B00007E000F0C3F9044618B900F03DFA00E067
:1024C0000224204610BD0224FBE700BF891500202E
:1024D0003C12002008B5124B1B78DBB2042B00D055
:1024E00008BD8369002BFBD0837803F00F020D49F0
:1024F00081F83C2123F07F0381F83D312C2303FB3D
:1025000002139B6813F0100FEAD10B462C2101FB3C
:102510000232137A13F0020FE2D0FFF79BFFDFE7DE
:10252000891500203C12002010B51A4B1B78DBB235
:10253000042B02D00024204610BD836933B3037AF4
:1025400003F00F02144981F83C2123F07F0381F846
:102550003D312C2303FB02139B6813F0200F17D08F
:102560002C2303FB021393F90430002B09DB0A4BE5
:102570002C2101FB02329489002CDCD100F0AEF951
:10258000D9E72C2303FB0212948BF5E70024D2E752
:102590000024D0E7891500203C12002010B52B4BF9
:1025A0001B78DBB2042B48D18369002B48D0027A18
:1025B00002F00F03264981F83C3122F07F0281F8B6
:1025C0003D2118462C2202FB0312926812F0200FC4
:1025D00039D02C2202FB031292F90420002A0FDBCF
:1025E0001B4A2C2101FB03239B894FF0FF3473B955
:1025F000174B2C2202FB00308389DBB1204610BD33
:102600002C2202FB03139B8B4FF0FF3463B100F0CD
:1026100029FA04B20E4A92F83C012C2303FB002352
:1026200093F90430002BE3DA094A2C2303FB002042
:10263000838BE2E700F052F9E0E74FF0FF34DDE78B
:102640004FF0FF34DAE74FF0FF34D7E78915002069
:102650003C120020154B1B78DBB2042B00D07047D6
:102660008369002BFBD010B582B00446837B104AEF
:1026700003F00F0182F83C1123F07F0382F83D3113
:102680000C4A6B4692E8030083E80300002208210D
:10269000184601F04FF90022022104F1160001F062
:1026A00049F900F049F902B010BD00BF89150020BA
:1026B0003C120020A0DE0008704770477047000001
:1026C000484B93F83E3113F0020F04D0464B9A88E2
:1026D00003789A4200D0704710B50446424B5B78AD
:1026E000203B032B5BD8DFE803F02A02566B3E4BFE
:1026F0001B78A12B53D13B4A92F83E316FF3410333
:1027000082F83E3192F83C21364B2C2101FB0232FB
:10271000936813F0100FFBD1137A13F0020FF7D068
:10272000A06900F0B7F9207F00F082F9607F00F027
:102730007FF9A07F00F07CF900F0FEF82FE02A4B33
:102740001B78212B2BD1274A92F83E316FF341039E
:1027500082F83E3192F83C21224B2C2101FB0232BF
:102760002249936813F0200F03D10B78002BF8D186
:1027700015E000F0A9F9A06100F074F9207700F0ED
:1027800071F9607700F06EF9A07700F0A7F82046A5
:10279000FFF792FF03E0144B1B78212B00D010BDF4
:1027A000104A92F83E316FF3410382F83E310E4AEF
:1027B0009378D27843EA02238382FFF77EFFEEE725
:1027C000094B1B78212BEAD1064A92F83E316FF370
:1027D000410382F83E31044B5988C9B2FFF76EFFBE
:1027E000DDE700BF3C1200208C1500208915002079
:1027F000104B1B78EBB110B50F4B93F83D4193F89C
:102800003C211443002283F83C2183F83D2193F8B6
:102810003E3113F0020F09D1074B04F00F0283F889
:102820003C2124F07F0483F83D4110BDFEF796F96A
:10283000F2E77047891500203C1200202DE9F04195
:10284000244B1B689B6B984706466427214C2C251C
:10285000DFF8848001E01F46064694F83C3105FB12
:10286000034292F90420002A1DDB05FB0342926813
:1028700012F0200F26D198F8002002F0FF011AB3C1
:10288000052923D005FB03431B7A13F0040F1FD146
:1028900023689B6B98478642DED07B1EDBB2002FFD
:1028A000D9D104200CE005FB0342926812F0100F0E
:1028B000E1D105FB0342127A12F0020FDBD00020B7
:1028C000BDE8F0810020FBE70220F9E70320F7E7ED
:1028D0000120F5E73C1200208915002038B5154A83
:1028E00092F83C512C2303FB05231B7A13F0020FB3
:1028F0001ED02C2404FB05241368DB6AA2696169DD
:1029000020799847E06000232361A36813F0080F43
:102910000ED168B9074A238943F00803238123892C
:102920006FF34513238113689B6AA1692079984747
:1029300038BD00BF3C120020F8B52A4A92F83C513D
:102940002C2303FB05239B6813F0100F2ED12C239F
:1029500003FB05231B7A13F0020F27D02C2404FB62
:102960000524238943F010032381236AE362E3698A
:10297000A3620023E3611C4E4FF40067C6F88C701D
:10298000BFF34F8FBFF36F8F13681B6BA26AE16AAF
:1029900020799847E26A0244E262A36A1B1AA362A2
:1029A000F760124B1B78DBB2012B00D0F8BD207909
:1029B00010F00F0FFAD02246936813F0100FFBD1DE
:1029C000084A2C2303FB05252B8943F010032B8198
:1029D00013681B6B0022E96A9847044B00221A70A7
:1029E000E4E700BF3C12002000E100E0EC0E002014
:1029F0000E4991F83C312C2202FB031292F904207B
:102A0000002A08DB094A2C2101FB0323D868003087
:102A100018BF012070470A462C2101FB0323D86907
:102A20005B6A98422CBF0020012070473C120020B6
:102A300010B40B4B93F83C112C2202FB0132D369EA
:102A4000526A9342FDD2064A2C2404FB0122116AE9
:102A5000C854D3690133D3615DF8044B704700BF9C
:102A60003C1200200A4991F83C312C2202FB03124F
:102A7000D268002AFDD006492C2000FB03131969F7
:102A80005869405C01311961013ADA60704700BF52
:102A90003C12002010B40B4A92F83C112C2303FB8B
:102AA0000123DA695B6A033B9A42FDD2054B2C2471
:102AB00004FB0133196A8850DA690432DA615DF87F
:102AC000044B70473C1200200A4991F83C312C22FB
:102AD00002FB0312D268032AFDD906492C2000FB11
:102AE000031319695869405804311961043ADA60CE
:102AF000704700BF3C120020002930D02DE9F04182
:102B000004464F1EFFB207EB4707063000EB4707AE
:102B1000154E4FF02C0802E00634BC421DD0207840
:102B200000F00F053368DB69628821799847C0B9E6
:102B3000237808FB056213711389618861F38C1394
:102B4000138143F003031372207810F0800FE3D158
:102B500033689B6A91699847DEE7012002E0012013
:102B600070470020BDE8F0813C12002010B50446FB
:102B700001F0C0FC074B1868074BA3FB0030800C2A
:102B800004FB00F020B1002300BF01339842FBD1C9
:102B900010BD00BFC0FF002083DE1B43024A9368C4
:102BA00018439060704700BF74400050024A936819
:102BB00023EA00009060704774400050024A136995
:102BC00018431061704700BF74400050014B5868B3
:102BD000704700BF74400050014BD860704700BF81
:102BE00074400050024B186900F47060704700BFD9
:102BF00000400050014B1861704700BF004000507A
:102C00008000014B185870472C4000508000014B49
:102C1000195070472C400050800000F1A04000F592
:102C20008040D0F8A020012303FA01F11143C0F83D
:102C3000A0107047800000F1A04000F58040D0F85F
:102C4000A030012202FA01F123EA0103C0F8A0300A
:102C500070470000C90241F4080141EA0011024B2B
:102C6000C3F88C10704700BF00400050034AD2F8F0
:102C70008C3023F00103C2F88C30704700400050C4
:102C8000034AD2F88C3043F00103C2F88C3070470D
:102C900000400050034BD3F88C0080F0010000F09E
:102CA0000100704700400050024BD3F89000C0F381
:102CB000803070470040005008B5FFF7EBFF28B1A7
:102CC000044BD3F89000C0F3090008BD6FF000403A
:102CD000FBE700BF00400050024BD3F89000C0F368
:102CE000C03070470040005010B5FFF7D3FF0446D6
:102CF000FFF7F2FF50B984F00100C0B2044AD2F8E5
:102D00008C3043F00203C2F88C3010BD0220F5E78E
:102D100000400050000400F4702040F00100064B19
:102D2000C3F8CC10C3F8C8001A46D2F8C43013F464
:102D3000005FFAD1704700BF00400050000400F46B
:102D40007020064BC3F8C8001A46D2F8C43013F4FA
:102D5000005FFAD1014BD3F8CC007047004000501F
:102D6000024A936823EA0000906070476041005077
:102D7000024A936818439060704700BF604100505A
:102D8000014B5868704700BF60410050014B18610B
:102D9000704700BF60410050014BD860704700BFD2
:102DA00060410050024A536918435061704700BFA8
:102DB0003C410050014B5869704700BF3C410050F6
:102DC000024A136818431060704700BF3C4100502E
:102DD000024A136823EA0000106070473C4100502B
:102DE000024A936818439060704700BF3C4100500E
:102DF000024A936823EA0000906070473C4100500B
:102E0000024A536918435061704700BF7440005034
:102E1000024A536923EA0000506170477440005031
:102E2000030F03EB430320F07040024A42F82300F3
:102E3000704700BF10440050030F03EB430320F022
:102E40007040024A42F82300704700BF144400500B
:102E5000030F03EB430320F07040044A52F8233081
:102E6000184214BF01200020704700BF0C440050DE
:102E700008B5054BDB6813F0010F02D101F036FBFA
:102E800008BD0248FCE700BF1047005000366E0145
:102E900008B5FFF7EDFF0F4B1B6813F0010F11D1C1
:102EA0000C4B9A6899689B68C1F3062101FB0000EE
:102EB000C2F30362C3F30643013302FB0333B0FBE7
:102EC000F3F008BD034B9B6803F07F030133B0FBB5
:102ED000F3F0F6E71047005008B501F007FB094B87
:102EE0001B6913F0010F0CD1064B5A695B69C2F3E1
:102EF000062202FB0000C3F3036301335B00B0FB57
:102F0000F3F008BD10470050054B1A691B6A02F028
:102F1000010204490868904003F00103D84070475B
:102F200000460050C0FF002008B5094B9B6913F410
:102F3000803F09D1FFF7D0FF054B9B6903F00703E2
:102F40000133B0FBF3F008BDFFF7A2FFF4E700BFC9
:102F50000046005008B5FFF79BFF044BDB6903F008
:102F60003F030133B0FBF3F008BD00BF0046005043
:102F700008B50D4B5B6A03F44033B3F5003F0DD049
:102F80007BB1B3F5803F14BF00204FF40040064BE7
:102F90005B6ADBB20133B0FBF3F008BDFFF778FFEB
:102FA000F5E70248F3E700BF0046005000366E0127
:102FB00008B5134B9B6A03F00303032B04D06BB1DA
:102FC000022B13D0002010E0FFF762FF0C4B9B6A2E
:102FD000C3F308430133B0FBF3F006E0084B1B6971
:102FE00003F00103074A1068984008BDFFF774FF1B
:102FF000034B9B6AC3F308430133B0FBF3F0F4E7E0
:1030000000460050C0FF0020034B5B6903F0010342
:10301000024A1068D840704700460050C0FF0020A8
:10302000034AD36823F480331843D060704700BF4D
:1030300000460050034A936923F48033184390619B
:10304000704700BF00460050034A536A23F44033E0
:1030500018435062704700BF00460050034A936A0D
:1030600023F0030318439062704700BF00460050EE
:1030700038B1084AD36843F4807343F00103D36046
:103080007047044AD36823F4807323F00103D360AC
:10309000704700BF10470050064AD2F8C43013F002
:1030A000080FFAD1044AD36823F040031843D060D4
:1030B000704700BF0040005000430050064AD2F85D
:1030C000C43013F0080FFAD1044AD36823F0800308
:1030D0001843D060704700BF0040005000430050CC
:1030E000034AD36823F0FF0301380343D3607047DA
:1030F00000460050034A136A23F0010301380343DA
:103100001362704700460050034A136923F001031D
:10311000013803431361704700460050034A536966
:1031200023F0010301380343536170470046005008
:10313000034A936923F007030138034393617047FF
:1031400000460050034AD36923F03F03013803438C
:10315000D361704700460050034A536A23F0FF03CF
:10316000013803435362704700460050054A936A92
:10317000013823F0FF7323F4803343EA0043936262
:10318000704700BF00460050014B5860704700BFB9
:1031900000460050014B9860704700BF0046005049
:1031A000034B1B68184214BF01200020704700BF6A
:1031B00000460050064B5B69DBB207EE903AF8EE32
:1031C000677A9FED047A67EE877A17EE900A704768
:1031D00000420050ED0DBE3B074B5B69C3F3072374
:1031E00007EE903AF8EE677A9FED047A67EE877AF9
:1031F00017EE900A704700BF00420050EC51B83CF7
:10320000034A536923F4803323F002035361704768
:1032100010470050034A536943F4803343F00203DC
:103220005361704710470050104B5A6942F0010239
:103230005A615A6942F010025A6101390138000698
:1032400040EA012159615A6942F040025A615A69C3
:1032500022F010025A615A6942F480225A611A46D9
:10326000136913F0040FFBD0704700BF10470050E4
:10327000014B024A5A617047104700500300010099
:1032800010B50C4A536843F480135360012803D0EF
:103290006420FFF76BFC10BD1446536823F48013C1
:1032A00053606420FFF762FC636843F400236360AB
:1032B000EEE700BF10470050024B4FF440325A6017
:1032C000704700BF00420050024B4FF440329A60FA
:1032D000704700BF00420050024B1869C0F38000E5
:1032E000704700BF104700500D4B1B6813F0010FD3
:1032F00007D10B4B01225A601A46136813F0010FD5
:10330000FBD0084B1B6813F4007F08D0054B4FF42B
:1033100000729A601A46136813F4007FFBD170475D
:103320000042005000440050044B01229A6003F513
:1033300000734FF400725A60704700BF00420050A3
:10334000064B1B6813F0010F06D0054B186880F47C
:103350000070C0F3402070470020704700420050CA
:1033600000440050054AD2F8C43013F0200FFAD1BF
:10337000034A536923F00103536170470040005032
:1033800000430050054AD2F8C43013F0200FFAD1A0
:10339000034A536943F001035361704700400050F2
:1033A00000430050044AD2F8C43013F0020FFAD19F
:1033B000024B5860704700BF00400050004300506F
:1033C000044AD2F8C43013F0040FFAD1024B9860CB
:1033D000704700BF0040005000430050054AD2F83B
:1033E000C43013F0080FFAD1034BDA681043D860E9
:1033F000704700BF0040005000430050054AD2F81B
:10340000C43013F0080FFAD1034AD36823EA00004E
:10341000D06070470040005000430050054AD2F889
:10342000C43013F0080FFAD1034AD36843F01003F5
:10343000D3607047004000500043005000B1704717
:1034400008B5FFF7EBFF08BD094AD2F8C43013F006
:10345000080FFAD128B1074AD36823F48073D360E8
:103460007047044AD36843F48073D360704700BF49
:10347000004000500043005010B40A4AD2F8C43053
:1034800013F0080FFAD1084CE36880004FF4702263
:10349000824023EA020381401943E1605DF8044B56
:1034A000704700BF004000500043005010B4094A6C
:1034B000D2F8C43013F0080FFAD1074CE3684FF488
:1034C0008052824023EA020381401943E1605DF8A3
:1034D000044B70470040005000430050094AD2F8A6
:1034E000C43013F0080FFAD128B1074AD36823F487
:1034F0008063D3607047044AD36843F48063D36029
:10350000704700BF0040005000430050064AD2F808
:10351000C43013F0080FFAD1044AD36823F480634F
:103520001843D060704700BF004000500043005077
:10353000034B186880F00800C0F3C000704700BF5C
:1035400000430050134AD2F8C43013F0800FFAD170
:10355000114AD36923F03003D361A2F54072D2F847
:10356000C43013F0080FFAD10B4AD36843F00803B4
:10357000D360A2F54072D2F8C43013F0040FFAD130
:10358000054B08229A60034AD2F8C430002BFBD1C5
:10359000704700BF0040005000430050054AD2F879
:1035A000C43013F0800FFAD1034AD36943F03003DB
:1035B000D36170470040005000430050054AD2F8E4
:1035C000C43013F0800FFAD1034AD36943F03103BA
:1035D000D36170470040005000430050064AD2F8C3
:1035E000C43013F0800FFAD1044AD36923F03103B9
:1035F00043F02003D3617047004000500043005067
:10360000024B986900F00100704700BF0043005072
:1036100070B50D4D6B6823F480336B600B4E74688E
:1036200000F064FF0A4BA3FB0030030D581E24F486
:10363000702323F0300343EA004373606B6823F484
:1036400000336B6070BD00BF104700500047005052
:103650006BCA5F6B044B186800F46070B0F5607F54
:1036600014BF00200120704710470050024A5368E1
:1036700043F030035360704700470050024A5368DC
:1036800043F001035360704700470050024A5368FB
:1036900023F001035360704700470050024B186845
:1036A00000F00100704700BF00470050034A536814
:1036B00023F4803323F00203536070471047005017
:1036C000034A536843F4803343F002035360704766
:1036D00010470050024A536843F4803353607047E8
:1036E0001047005008B5064A9368013823F4FE03DA
:1036F00043EA004393603220FFF738FA08BD00BF69
:10370000104700502DE9F04180460C4617461E46F2
:10371000069DFFF7ADFC012C10D0364A936823F0CC
:103720007F03681E18439060536843F001035360A1
:10373000136813F0010FFBD0BDE8F081B8F1000F62
:103740004AD04FF0C06406FB04F4B4FBF7F42949F7
:103750004B6843F001034B604B6843F010034B6030
:103760008A68013F244B134043EA0763013E43EA62
:103770000623224AA2FB0402920E013A43EA0243C4
:103780008B604B6843F040034B604B6823F01003A1
:103790004B604B6843F480234B600A46136813F078
:1037A000040FFBD0134A536823F0010353601368DE
:1037B00013F0010FFBD11248A0FB0430C00E85426C
:1037C00012D360080F4CA4FB0030C00E85420ED30C
:1037D0002846FFF787FFAFE700F088FE0A4CA4FBFE
:1037E0000034A40CA405AEE7FFF77CFFE9E7FFF780
:1037F00079FFEDE710470050FF8080F0ABAAAAAA3E
:1038000089888888B7600BB683DE1B4330B583B0E8
:1038100004460020FFF704FCFFF766FDE37923BBB5
:10382000607AFFF74BFC204AD2F8C430002BFBD162
:10383000207AFFF725FD207CFFF752FC607CFFF724
:1038400063FCA07CFFF756FCE07CFFF767FCA379E4
:1038500093B9E378BBB9FFF733FFE368B3F5803F73
:103860001CD000F047FE03B030BDFFF76BFEFFF742
:103870005FFE0028FBD0D3E7FFF7CAFEFFF7EAFEA2
:103880000028FBD0E5E7FFF711FF23786278E178A5
:10389000A088A5780095FFF735FFDEE74FF480306C
:1038A000FFF7BEFBDDE700BF00400050024B186889
:1038B000C0F38000704700BF1047005010F0010FA8
:1038C00011D10023013320FA03F212F0010F03D1CA
:1038D000202BF7D101207047202B06D0044A42F854
:1038E0002310002070470023F8E70120704700BF35
:1038F0009415002010B50D4B5A6812F0010F09D134
:10390000012422FA04F313F0010F04D10134202C16
:10391000F7D10AE00024064B53F8243003B198474E
:10392000012303FA04F4014BDC6010BD7440005025
:10393000941500202DE9F84F81460E462A4B93F846
:103940003CA190464AB11788CE1BB6B24FF0000B8F
:10395000254B2C2505FB0A351AE00027F6E7FFF773
:1039600047F8F8B1EB696C6AE41AB44228BF3446F0
:10397000A4B2286A224609EB0701184400F0CEF9E8
:10398000EB692344EB612744BFB2341BB346A6B2B4
:10399000BEB1AB6813F0100FE1D0AB6813F0100F9D
:1039A000FBD1DCE7FEF7C8FFB8F1000F05D1FEF749
:1039B00045FF03460028EBD00EE0A8F80070052371
:1039C0000AE0094B2C2202FB0A3ABAF80830C3F38A
:1039D00086135B4503D000231846BDE8F88F034BE0
:1039E00001221A700023F7E73C120020EC0E0020A1
:1039F00072B110B44B1E013810441144013913F850
:103A0000012F00F801298B42F9D15DF8044B704772
:103A1000704700002DE9F84380468946224B93F811
:103A20003C51174642B116888C1B1FFA84F91E4B75
:103A30002C2202FB05351BE00026F8E7FEF7D8FF35
:103A400010B3E8696B6A1B1A4B4528BF4B469CB202
:103A50002B6A224608EB06011844FFF7C9FFEB6901
:103A60002344EB612644B6B2A9EB04041FFA84F99F
:103A7000B9F1000F14D0AB6813F0100FDED0AB68B3
:103A800013F0100FFBD1D9E7FEF756FF2FB9FEF761
:103A9000D5FE03460028EBD003E03E80052300E07E
:103AA00000231846BDE8F8833C1200202DE9F843B6
:103AB00081460E46224B93F83C5190463AB1178806
:103AC000CC1BA6B21E4B2C2202FB05351BE00027A7
:103AD000F8E7FEF78DFF00B3EC68B44228BF344628
:103AE000A4B269692B692246194409EB070000F06A
:103AF00015F9EB681B1BEB602B6923442B612744F2
:103B0000BFB2341BA6B2BEB1AB6813F0080FE0D051
:103B1000AB6813F0080FFBD1DBE7FEF7DFFEB8F16F
:103B2000000F05D1FEF78AFE03460028EBD004E023
:103B3000A8F80070052300E000231846BDE8F883CC
:103B40003C1200202DE9F84381460E46224B93F8A3
:103B50003C5190463AB11788CC1BA6B21E4B2C2282
:103B600002FB05351BE00027F8E7FEF741FF00B335
:103B7000EC68B44228BF3446A4B269692B69224676
:103B8000194409EB0700FFF733FFEB681B1BEB60E1
:103B90002B6923442B612744BFB2341BA6B2BEB1AC
:103BA000AB6813F0100FE0D0AB6813F0100FFBD12F
:103BB000DBE7FEF793FEB8F1000F05D1FEF73EFEFE
:103BC00003460028EBD004E0A8F80070052300E0CD
:103BD00000231846BDE8F8833C120020F8B50746DC
:103BE0000E460F4CCEB1A36813F0100F03D0A3689C
:103BF00013F0100FFBD1656AB54294BFADB23546E4
:103C00002A463946206A00F089F8E3692B44E361CB
:103C1000751BAEB2FEF790FEE4E70020F8BD00BFD2
:103C20003C12002008B5FFF7D9FF08BD2DE9F0418F
:103C300007460E46104CDEB1A36813F0200F03D1E7
:103C4000A36813F0200FFBD0E568B54228BF3546C6
:103C50001FFA85F842466169384600F05FF8E3686C
:103C6000A3EB0803E360751BAEB2FEF737FEE2E795
:103C70000020BDE8F08100BF3C12002008B5FFF72E
:103C8000D5FF08BD2DE9F8438146234B93F83C51FD
:103C90000F4651B10E88841B1FFA84F91E4B2C224B
:103CA00002FB05354FF000081AE00026F6E7FEF7A4
:103CB0009FFE08B3E8696B6A1B1A4B4528BF4B4649
:103CC0009CB22B6A22464146184406F08DFFEB69F0
:103CD0002344EB612644B6B2A9EB04041FFA84F92D
:103CE000B9F1000F14D0AB6813F0100FDFD0AB6840
:103CF00013F0100FFBD1DAE7FEF71EFE2FB9FEF727
:103D00009DFD03460028EBD003E03E80052300E044
:103D100000231846BDE8F8833C120020130911D097
:103D200051F804CB40F804CB51F804CB40F804CB55
:103D300051F804CB40F804CB51F804CB40F804CB45
:103D4000013BEDD112F00F0305D011F801CB00F8C3
:103D500001CB013BF9D1704710B401F0FC031844CA
:103D6000036901F00301C900F8248C4023EA04032D
:103D70000361036902FA01F1194301615DF8044B23
:103D8000704710B4436F490003248C4023EA0403B6
:103D90004367436F8A401A4342675DF8044B70479C
:103DA000F0B401F0FC0303441D6901F00304E400D6
:103DB000F826A64025EA06051D61456F4F0003263B
:103DC000BE4025EA06054567154DA8421FD005F5FA
:103DD0008075A8421BD055688D404560CD0800EB2A
:103DE0008500056C01F00701890007268E4025EA51
:103DF00006050564066C157A05FA01F13143016484
:103E000019691278A2400A431A61F0BC7047056E26
:103E1000012606FA01F125EA01010166F0E700BF7B
:103E2000008E024810B4CB0800EB8300036C01F055
:103E30000701890007248C4023EA04030364036C10
:103E400002FA01F1194301645DF8044B7047000068
:103E500010B504461020FFF797F90E4B9C4209D08D
:103E60000D4B9C420AD00D4B9C420BD00C4B9C42FC
:103E70000CD010BD0420FEF7DFFFFAE70820FEF7A4
:103E8000DBFFF6E71020FEF7D7FFF2E70548FEF765
:103E9000D3FFEEE700C000400000014000400140B9
:103EA000004000480100001008B50E4B984209D0B0
:103EB0000D4B98420AD00D4B98420BD00C4B9842B8
:103EC0000CD008BD0420FEF7ABFFFAE70820FEF790
:103ED000A7FFF6E71020FEF7A3FFF2E70548FEF77D
:103EE0009FFFEEE700C0004000000140004001409D
:103EF000004000480100001038B504460D46FFF7A9
:103F0000A7FFE36843F48073E360216821F4404134
:103F100041EA8531216038BD036823F0300343EA6C
:103F2000011101607047036823EA114389B2194304
:103F3000016070470B6843614B79C3F340131B0565
:103F400043600B7903F00F0343624B7903F00F03D7
:103F500003624B79C3F3001383610B791B09C362BE
:103F600070470B6843614B7903F001031B05436005
:103F70000B7903F00F0343620B791B09C36270478F
:103F8000436823F00303194341604369012A0CBFCE
:103F900043F4806323F4806343617047436823F0F4
:103FA0000C0343EA81014160436923F4407343EA0F
:103FB000022242617047436823F4405343EA0131CF
:103FC0004160704730B44469456825F4402545EAAE
:103FD00081414160012A0CBF44F0807424F0807458
:103FE00023B924F40004446130BC704744F4000455
:103FF000F9E7436823F4404343EA81314160704765
:10400000436823F4407343EA0121416070474368E9
:1040100023F0300343EA011141607047436823F005
:10402000C00343EA811141607047436823F4406351
:1040300043EA812141607047436843F48033436021
:104040007047436843F40033436043694AB143F423
:10405000001301290CBF43F4800323F48003436160
:10406000704723F40013F4E710B4036823F44023EB
:104070004C7843EA844323F44013547843EA0453CE
:1040800023F400038C7843EAC45323F080739478BC
:1040900043EA046323F0C053CC7843EAC46323F0BB
:1040A000C043D47843EA447323F0F003097843EA29
:1040B000011323F47063127843EA022303605DF86E
:1040C000044B7047F0B44C1EE4B2D0F800C0650059
:1040D000EDB205F11003DFB2032606FA07F32CEA6E
:1040E000030C5378BB4043EA0C031531CFB20121D6
:1040F000B94023EA01039178B94019431935EDB26B
:1041000006FA05F321EA0301D378AB400B43A10083
:10411000C9B20F248C4023EA0403127802FA01F199
:104120000B430360F0BC704710B403680139890089
:10413000C9B20F248C4023EA040302FA01F11943A7
:1041400001605DF8044B704721B1436943F00203FD
:1041500043617047436923F002034361704721B113
:10416000436943F0010343617047436923F001034E
:10417000436170471C3100EB81014868704730B4DF
:10418000436913F0100F27D101290BBF0425022525
:10419000022300231C4603F11C0100EB8101496846
:1041A00011F4801F08BF01330CD1D9B28D4211D94F
:1041B0001C4603F11C0100EB81014968013311F435
:1041C000801FF2D01C3400EB840043681360002091
:1041D00030BC70470120FBE704250023DAE7006DBF
:1041E000C0F30152914218BF4FF0FF30704710B436
:1041F000446924F4C04409B144F400540AB144F4BD
:104200008044446103625DF8044B7047836A23F481
:10421000706343EA012383624162704710B4D0F8AF
:10422000A830092911D8DFE801F014140505101091
:104230001010080C0C2402210DE04FF440740821EA
:1042400009E04FF440640A2105E04FF440540C218A
:1042500001E00324002123EA04038A401A43C0F842
:10426000A8205DF8044B7047836923F001031943CC
:104270008161704710B4084C04F10F0301382F34EA
:1042800013F8012F10F8011F4A401A70A342F7D10A
:104290005DF8044B704700BF3000002000487047B5
:1042A00038DF000830B5B7B02C4B1B68359305AC30
:1042B0002B4D0FCD0FC495E80F0084E80F00294C5B
:1042C0004FF48062002104F1300006F08DFC0023E1
:1042D0002360A368DBB12021039105AB0293802208
:1042E0000023CDE9002315AA1F4800F060FA00283A
:1042F0002FD10DA8FFF7BEFFA0210DA800F0F5FDFE
:10430000359A164B1B689A4225D137B030BD0DAC9B
:10431000039302934FF480320023CDE900234FF042
:1043200080522021204600F042FA104B94E803000E
:1043300083E80300D3E90023134303D0094B012290
:104340009A60C8E70A4B05F110025121094805F0AF
:10435000EBFF05F0E1FFFCF7DDFB00BF5CDE0008D2
:10436000A8DE00083000002040000020600400208B
:1043700044DF000864DF000830B585B004460391CF
:104380001B4B9B685BB31A4B03F11002019203F5C0
:1043900086630093039A0023204600F01DFC08BBAF
:1043A000144903AA04AC12F8013B11F8010F434071
:1043B0000B70A242F7D10E4800F58663D3E90045A1
:1043C000611C45F10002C3E9001210300190009316
:1043D00020220023014600F013FC05B030BDFFF79A
:1043E00061FFD0E7044B054A9D21054805F09CFF7D
:1043F000300000203F00002084DF0008ECDE0008D1
:1044000064DF000810B582B01B4B1B680BBB1A4B56
:104410009B6843B3184800F11003019300F58663CD
:1044200000934FF480620023303000F0D5FBE8B9F0
:10443000114C4FF47873236004F58260FFF71AFF84
:1044400004F58664D4E90023501C43F10001C4E95B
:104450000001094A1368191F11602C33D05800213C
:10446000D15002B010BDFFF71DFFD3E7034B044A44
:10447000B621044805F058FF3000002084DF000812
:1044800010DF000864DF000882B000230193019B65
:10449000984206D900BF019B01330193019B8342DF
:1044A000F8D302B07047000072B60D4B0D4A9A6007
:1044B000BFF34F8F62B6D3F8882042F47002C3F87E
:1044C00088205A6922F008025A61074941F2140211
:1044D0008B5823F00F0343F003038B50704700BF4A
:1044E00000ED00E000000008001000580048704790
:1044F000001BB70008B51E4BDB6813F4803F27D0C4
:104500001C4BDB6813F0010F0DD01B48194B1B68C7
:1045100013F0040F0AD1174B9B6803F07F0301339C
:10452000B0FBF3F015E0FFF7E1FFEFE7114B9968FF
:104530009A689B68C1F30361C3F30643013301FB2F
:104540000333B0FBF3F0C2F3062303FB000000E0EB
:104550000948074AD368DBB20133B0FBF3F01369B3
:1045600003F001030133B0FBF3F0044B186008BD06
:10457000004600501047005000366E01C0FF00207A
:1045800010B55C4B1B6813F0010F08D1594A5368F2
:1045900043F001035360136813F0010FFBD0564B37
:1045A0001B6813F4007F78D1544C636843F40023F4
:1045B000636040F6C410FFF767FF636823F480333D
:1045C00023F0020363604E4B5B6813F0300F6ED133
:1045D0004A4B5A6842F001025A605A6842F010028F
:1045E0005A60484A9A605A6842F040025A605A68D3
:1045F00022F010025A605A6842F480225A601A4629
:10460000136813F0040FFBD03C4A536823F00103F6
:104610005360136813F0010FFBD13B4BDA6842F48F
:104620008032DA6000225A611A611A625A62DA61D3
:1046300003229A6103F588735A6822F040025A6097
:10464000324A9A6040F6B830FFF71EFF2B4A1368D3
:1046500013F0040FFBD0294B2D4A9A6041F29410BD
:10466000FFF712FF254A136813F0040FFBD0234B0A
:10467000284A9A6041F27070FFF706FF1F4A1368DC
:1046800013F0040FFBD0244B0522DA6003F594638A
:1046900000225A60FFF72EFF10BD174A936843F4BB
:1046A0000073936041F64C50FFF7EEFE7CE7103C40
:1046B000636823F4702323F030036360FFF716FF71
:1046C0006268164BA3FB00131B0D013B42EA034338
:1046D00063600A4BDA6822F00102DA605A6822F459
:1046E00000325A601A46136803F46073B3F5607FB2
:1046F000F9D16DE7004200500044005010470050CF
:1047000000470050004F130100460050004F0701C2
:10471000004F0401004F0301604100506BCA5F6B02
:1047200010B54FF00053044C0FCB84E80F00FFF797
:10473000BBFEFBF71BFE10BDC4FF002008B50346FF
:104740000C4A12685AB10B4A1068033323F0030372
:104750000344094A934206D2064A136008BD054A3B
:1047600006491160EFE705F03FFE0C2303604FF0B0
:10477000FF30F3E7F00E0020C0FF002040160020BD
:10478000704710207047402070472020704710204D
:10479000704740207047202070470000014878444F
:1047A000704700BFEB9700004FF4C070704730B403
:1047B00030BC00F009B800F035B800F070B800F077
:1047C00071B8202100F0A6BA0B46F0B45D1E3F2D53
:1047D0001146079C069A07D8402C05D8E4B20694E7
:1047E000DBB2F0BC01F036BB4FF0FF30F0BC7047DD
:1047F000F0B50B4603F1FF3C1146BCF13F0F07AA91
:1048000092E834400BD8402C09D8E4B2CDF824E02B
:1048100008950794DBB2BDE8F04001F056BB4FF0BD
:10482000FF30F0BD38B50C46591E3F29054611D85A
:10483000402A0FD8D9B204B13AB9284601F0B8F8E5
:10484000003018BF0120404238BDD3B2224601F0EB
:104850009FF9F5E74FF0FF3038BDF7B50C46591E0C
:104860003F290746089D099E16D8402A14D8D9B278
:1048700004B152B933462A46384601F0CFF8003029
:1048800018BF0120404203B0F0BDD3B28DE86000F4
:10489000224601F0D4F9F2E74FF0FF30F3E701F0E0
:1048A00011B90000FF2A08B508D9074B074A084884
:1048B0007B447A446621784405F036FDD2B2BDE8E7
:1048C000084001F035BA00BF02970000DF960000F3
:1048D0001097000001F03CBB2DE9F04FA3B006AFEC
:1048E0000446D7F8A08039601546C4B00023D7F835
:1048F000A420414607F110000DF1270600F0FAFD53
:10490000AC4226F00F0607D9D7E926010023621B27
:104910008B4208BF824209D3AC420ED2D7E92601AE
:1049200000232A1B8B4208BF824206D22946D7F8B1
:104930009820204606F0F4F825462022002107F1B1
:10494000300006F051F9D7E92623002B08BF212AB1
:10495000C7E9022303D320220023C7E90223D7F8A3
:1049600008B007F14F090BF1FF336A1E2B4449468B
:104970009A4254D108F1100307F1100A7B608DE8C8
:104980000804D7E9022307F13008203243F100037D
:104990004146404600F034F94146304601F000FB04
:1049A0000BF11F03621E434499453DD1402140460F
:1049B00000F09BFAD7E90223D7E926018B4208BF12
:1049C000824214D201220023CDE902237B680093A6
:1049D00002460B46D7E90201121A63EB0103CDF838
:1049E00010A005EB0B0104EB0B0000F0FFF85046A4
:1049F000202100F07AFAD7E926232146304601F03B
:104A0000D7FA3968304601F0DFFA30464FF480714A
:104A100000F06BFA00207437BD46BDE8F08F12F845
:104A2000010F01F8010FA3E719F8011F02F8011F98
:104A3000BAE730B500256FF010049D4208BF9442DC
:104A400085B001D200F0E8F9099C0394089C029417
:104A5000CDE900230A4601461030FFF73DFF05B0BF
:104A600030BD2DE9F04FA1B00DF120082C9F9146EB
:104A70000C46002339462D9A10AE054610374046A5
:104A800000F038FD202200238DE88001304600F040
:104A9000A3F848460096DDE92A23214601F074FA7E
:104AA000814648B12021404600F01FFA4FF0FF39FF
:104AB000484621B0BDE8F08F002DF9D0AC4209D3B3
:104AC000DDE92A010023621B8B4208BF824209D321
:104AD000AC420DD8DDE92A0100232A1B8B4208BF16
:104AE000824205D221462A9A284606F019F82C4619
:104AF000DDE92A23002B08BF212ACDE9062303D3B1
:104B000020220023CDE90623DDF818B00DF15F085F
:104B10000BF1FF33621E234441469A4234D1DDE952
:104B2000062310AE20320DF1200A43F10003314676
:104B300030468DE8800400F063F80BF11F026B1E15
:104B40001644B04525D1DDE90623DDE92A018B4273
:104B500008BF824213D201220023CDE9022302467C
:104B60000B46DDE90601121A63EB0103CDF810A034
:104B7000009704EB0B0105EB0B0000F037F8202148
:104B8000504600F0B2F993E712F8010F01F8010F57
:104B9000C3E718F8012F03F8012FD2E7002B08BF55
:104BA000102A1FB50ED3103A079C039443F1FF332C
:104BB000069C0294CDE900230A461031FFF751FF0D
:104BC00004B010BD4FF0FF30FAE7202070470820F6
:104BD00070474FF0FF30704710B403495DF8044B45
:104BE0007944096809680847A8B8FF17F0B4034C6E
:104BF0007C4424686468A446F0BC604798B8FF17FA
:104C0000F0B5084C87B07C440026002724680D9D31
:104C10000495CDE902670C9D00956468A04707B034
:104C2000F0BD00BF82B8FF17202100F073B800006C
:104C3000044B054A7B4400209A58044B7B441A607D
:104C4000704700BF5CC2FF17000000004CB8FF17A0
:104C5000024B7B4418600020704700BFA2C2FF17C0
:104C600010B500F00BF8044B7B441B689B6813B134
:104C7000BDE81040184710BD8CC2FF17054B064A0F
:104C80007B447A44196821B9044952581A60FFF7E5
:104C9000E7BF704774C2FF170EC2FF170C00000079
:104CA00010B5FFF7EBFF034B7B44BDE810401B68DA
:104CB0001B6818474CC2FF1710B5FFF7DFFF034B07
:104CC0007B44BDE810401B685B68184734C2FF177F
:104CD00070B50446FFF7D2FF0D4B7B441B68DB68C1
:104CE0001BB12046BDE870401847012C0DD9634226
:104CF000B3FBF4F504FB1535FFF7DEFF8542FBD867
:104D0000B0FBF4F304FB130070BD184670BD00BF88
:104D10001AC2FF1770B50C460546FFF7AFFF44B146
:104D2000044B7B4421461B6828461B69BDE8704044
:104D3000184770BDD2C1FF1707B5054B01927B44E0
:104D400000930A46002301F023FC03B05DF804FB46
:104D5000BD92000020207047044B7B441B6813B1B8
:104D60005B6903B118470020704700BF9AC1FF1765
:104D7000012B08BF002A08B509D3074A074B08488A
:104D80007A447B440C32CC21784405F0CDFA1146AC
:104D9000BDE80840FFF7BEBF7B9200009192000083
:104DA0009F920000064B01227B4453E8000F43E82A
:104DB00000210029F9D1BFF35B8F0028F5D170479E
:104DC00050C1FF1770B5FFF7EDFF0446A8B90C4DB1
:104DD0007D4401266B682BB1BFF35B8F344628609E
:104DE000204670BD00F03AF8FFF73AFF00F000F9F6
:104DF0006E60BFF35B8F2C60F2E74FF0FF34EFE79C
:104E000028C1FF17034BBFF35B8F7B440020186062
:104E1000704700BFEEC0FF1708B5FFF7C3FF38B9F2
:104E2000044A7A449368BFF35B8F106003B19847DC
:104E300005F072FAD6C0FF1710B50446FFF7B2FFAF
:104E400030B9054B7B449C60BFF35B8F186010BD8D
:104E50004FF0FF3010BD00BFB4C0FF17034B7B44C1
:104E60000020012258601A60704700BFA6C0FF17DB
:104E7000014B7B445868704792C0FF17014B7B443D
:104E80009868704786C0FF17014B7B44D86870470D
:104E90007AC0FF17014B7B44186970476EC0FF173B
:104EA000014B7B445869704762C0FF17014B7B443C
:104EB0009869704756C0FF17014B7B44D86970470B
:104EC0004AC0FF17014B7B44186A70473EC0FF176A
:104ED000014B7B44586A704732C0FF17014B7B443B
:104EE000986A704726C0FF17704705F083BA70476D
:104EF000F7B5002406460F4615468DF80740FFF724
:104F0000F6FF2346AB4206D19DF807000138C00FDB
:104F1000013803B0F0BDF15CF85C9DF8072041401A
:104F20000A438DF807200133ECE77047F7B50023FB
:104F300016468DF8063005460C4601238DF80730DD
:104F4000FFF7F3FFAA19A119AA420AD19DF806009A
:104F50009DF806209DF8073010441844013803B02E
:104F6000F0BD12F8013D11F8014D9DF807009DF8C4
:104F70000660E71A00EA272030438DF806009DF806
:104F800007006340013B00EAE3738DF80730DBE77D
:104F900082B000238DF807300144884205D19DF886
:104FA00007000138C00F02B070479DF8072010F8C5
:104FB000013B13438DF80730EFE70144012388429A
:104FC00000D170470278134400F8013B1B0AF6E752
:104FD00030B5013902440023904200D130BD04783D
:104FE00011F8015F2C44234400F8013B1B0AF3E74E
:104FF00008B5034810217844FFF78CFE002008BD57
:105000003ABFFF1708B505F0EFF9582303604FF0DA
:10501000FF3008BD08B505F0EDF905F0E5F95823B6
:1050200003604FF0FF3008BD38B50546002808BFC3
:10503000012005F027FA044618B12A46DB2105F0C5
:10504000D3FD204638BD08B528B14FF0FF33B3FB80
:10505000F0F38B4204D94843BDE80840FFF7E4BFB2
:1050600005F0C2F90C230360002008BD05F012BA58
:1050700008B505F0B9F9582303604FF0FF3008BDBB
:1050800008B505F0B1F9582303604FF0FF3008BDB3
:1050900008B505F0A9F9582303604FF0FF3008BDAB
:1050A00073B593B35C1E23426FEA02061BBFB2FBCB
:1050B000F3F503FB15253440641BB44201D3FFF71D
:1050C000ABFE069D2244AA421FD208B1551C0560C2
:1050D00000258DF807500A4484EA05009DF8071062
:1050E00016780138C0F30720314020F07F063143A5
:1050F00002F801199DF8071001350843AB428DF8FD
:105100000700E9D1002002B070BD4FF0FF30FAE790
:10511000F7B59A424FF00005019525D323B311440A
:105120002E46AE4611F801CD019F8CF08004013F60
:10513000013C3C400EF1FF373C40C4F300244CEAF4
:105140000E0E6742DDF804C02F40013547EA0C0718
:10515000AB42019746EA0406E4D1019BDB431A44C3
:105160000260701E03B0F0BD4FF0FF30FAE70000A0
:1051700001487844704700BFD98E000010B5084C34
:105180007C442068431C02D14FF0FF3010BD05F075
:10519000E5FE0028F8D14FF0FF332360606010BDBA
:1051A000FCB2FF17F0B5244B7B4491B05B68002B39
:1051B00040D105F019F9214D06687D4401AF002169
:1051C000286805F0E3FE431C04461FD0394605F06D
:1051D000D5FEB0B9029B03F47043B3F5005F10D164
:1051E0000121204605F0C2FE022140F001022046C6
:1051F00005F0BCFE124D7D442C60013415D1FFF743
:105200000BFE204605F0AAFE043504E005F0ECF89C
:105210000368042BF8D12B68002BD0D105F0E4F8FB
:10522000052303604FF0FF34E4E705F0DDF80123C8
:1052300006606B6011B0F0BDD4B2FF17D2B2FF1799
:1052400086B2FF172DE9F843224B7B4480465B680A
:105250000E460BB9FFF7A6FF1F4B7B44D3F8009017
:10526000B9F1FF3F01D1FFF7D7FD46B91B4B1C4AEF
:105270001C487B447A447021784405F055F8144B5F
:105280009E4216D8454637463A462946484605F0D6
:1052900091FE041E15DA05F0A7F80368042BF3D07D
:1052A00005F0A2F803680B2BEED0A642DBD1BDE8D7
:1052B000F8830D4B0D4A0E487B447A4471217844A3
:1052C000DBE702D03F1B2544DED1A5EB0804ECE769
:1052D000FEFFFF7F32B2FF1722B2FF17E38D0000FF
:1052E000CD8D0000F08D0000DE8D0000878D000068
:1052F000AA8D000007B504210DEB0100FFF7A2FF06
:10530000019803B05DF804FB2DE9F04F1446A1B0FD
:105310001D4654EA0503824689462C9A2A992D9FF8
:105320002E9843D000230DF12008C65C03F80860D6
:105330000133202BF9D1002304AEC85C985501330A
:10534000082BFAD1F2540133120A102B42EA0762F9
:105350004FEA1727F6D1CDE9004510AF009BE31ABD
:105360000AEB030B4B440393DDE90023002B08BF3A
:10537000402A1FD2A20942EA85629301A90950423C
:105380009A4499446FF03F0303FB0101A2FB0323FE
:105390000B44A4185D4154EA05032DD14021384641
:1053A000FFF7A3FD20214046FFF79FFD002021B01D
:1053B000BDE8F08F002342463146384600F098FAA7
:1053C0000023039AF95CD25C4A400BF803200133B6
:1053D000402BF6D108230122F15C0A44F254013338
:1053E000102B4FEA1222F7D1DDE90023403A43F1B6
:1053F000FF33CDE90023B1E700234246314638466A
:1054000000F076FA0023A342C8D219F80320F95C11
:105410004A400AF803200133F5E72DE9F047144626
:105420009CB01D4654EA05038246249925983AD03B
:10543000002304AFC25CDA550133202BFAD10023DC
:105440006E46CA5C9A550133082BFAD10022F254F9
:105450000133102BFBD1A046A946B9F1000FA4EBF4
:10546000080008BFB8F1400F504420D2A20942EA18
:105470008562A9096FF03F03504203FB01010AEB6B
:10548000821AA2FB03230B44A4185D4154EA0503CE
:105490000DF130081FD140214046FFF726FD2021A5
:1054A0003846FFF722FD00201CB0BDE8F08700233E
:1054B0003A46314600F01CFA08230122F15C0A4406
:1054C000F2540133102B4FEA1222F7D1B8F1400801
:1054D00049F1FF39C1E700233A463146404600F022
:1054E00007FA0023A342D6D218F803200AF80320B3
:1054F0000133F7E72DE9F04F8BB000906BB3DC6818
:105500009D685E681F6813699068029305904B68F8
:105510005068D2F81CA0D2F81890D2F814C0D1F874
:105520000C80D1F808E0019303900B68D1681268F1
:105530000B20089008980138089013D1009A136145
:10554000019B176056609560D4605361C2F818E003
:10555000C2F81C800BB0BDE8F08F4C4C4C4D4D4E4A
:105560004D4FD0E707EB0C0B81EA7B6B07EB0B0190
:105570008EEAF151069159448CEAF141099109985A
:105580000699014487EAB137911988EA716104915B
:10559000711889EAF151079107980499014482EA48
:1055A000F1420146114486EAB13659198AEA716A14
:1055B0000399019805EB0A0E81EAFE5E0AEB0E01E3
:1055C00083EAF1430EEB030185EAB135029901EB61
:1055D0000408059981EA786804EB080180EAF15132
:1055E000029808EB010C80EAFC4C01EB0C0984EA00
:1055F000B93407EB080982EA796207EB02098EEAFF
:10560000F95002EB000E039088EAFE4005900398E3
:1056100086460598864487EABE370BEB060E83EA7A
:105620007E6306EB030E81EAFE5101910198591841
:105630008BEAF14100EB010E049886EABE3600EBDE
:10564000050E8CEA7E6005EB000E0290069880EA5B
:10565000FE5E029800EB0E08049880EAF8480EEB14
:10566000080C099885EABC350AEB040C80EA7C6CCE
:10567000079804EB0C0980EAF9590CEB090B8AEA4C
:10568000FB4A09EB0A0B84EABB3453E77465206BD1
:10569000322D62796E642033657870612DE9F04FA8
:1056A0009BB0002B7AD0DC680A949C6809945C68F3
:1056B0001B680894079313680E9353680F939368BD
:1056C0001093D368119313691293536913939369D9
:1056D0001493D36915930B6816934B6817938B68D3
:1056E0001893CB681993149B0393099B0A9DDDF8CB
:1056F0005480DDF84CE0129C029317AB93E8080A43
:105700000193109B04930F9B0093DDF858A0089F12
:10571000119A0E9BDDF81CC000210B910B99249E61
:10572000B14248DB0799109E614401600E990B4419
:1057300043600F99009B0B448360049B3344C36018
:10574000119B1A44089B02613B444361169B179AC4
:105750009A44019BC0F818A01344C361189B029A95
:105760009944199BC0F820909B44099BC0F824B031
:1057700013448362129B039A2344C362139B9E4487
:10578000149BC0F830E01A444263159B4344836382
:105790000A9B2B44C3631BB0BDE8F08F514B0A93A7
:1057A00003F1646303F5E33303F5DF7309934E4BB1
:1057B00008934E4B7EE70CEB0E0182EA71620CEB14
:1057C000020189EAF1510C9151188EEAF1410D91D3
:1057D0000D9E0C9931448CEAB13CD919039E8BEA99
:1057E00071610591791886EAF1510391039E05993B
:1057F00001EB060B83EAFB4B33465B4487EAB33786
:10580000029B534488EA736306930699029B03EB59
:105810000108009B83EAF8580B4643448AEAF34A9E
:10582000029B08EB0A0683EAB636049B611983EAF9
:105830007161019B05EB010E83EAFE5E01EB0E092F
:105840000CEB010384EAF9498BEA73630EEB09045C
:105850000CEB030B85EAB43588EAFB5403EB040830
:1058600081EAF841049100942146049C21448CEA89
:10587000B13CD1198AEA716A07EB0A018EEAF1514B
:105880000191514482EAF1420199114487EAB1370A
:105890000599314489EA71640C9906EB040981EA9F
:1058A000F959059904EB090B81EAFB4B09EB0B0154
:1058B00086EAB1310291069901EB050E0D9981EA54
:1058C0007E6E039905EB0E0681EAF651069E039162
:1058D000714486EAF1480399414485EAB1350B9950
:1058E00002311AE77465206B6E642033657870614D
:1058F00013B514240094FFF7D1FE002002B010BDB0
:1059000040207047102070472020704710207047BB
:1059100013B50C240094FFF7C1FE002002B010BDA7
:10592000402070471020704720207047102070479B
:1059300013B508240094FFF7B1FE002002B010BD9B
:10594000402070471020704720207047102070477B
:10595000164B2DE9F7437B44A0F108060C46083BA3
:1059600000F138023746F3E90289E7E902899742F4
:10597000F9D140F225120021403005F035F92346D7
:10598000EE4618685968724603C2D6E90245DDE959
:10599000000160406940E6E90201BE4203F10803EC
:1059A000EFD1002003B0BDE8F08300BF6E87000098
:1059B00030B54B1E3F2B93B0054601D9FFF72CFAAB
:1059C00001238DF80A308DF80B3000220023CDE939
:1059D00000238DF808109DE80300002404AB83E841
:1059E00003000E2221460DF11A008DF809400394A0
:1059F0008DF818408DF8194005F0F6F82146102270
:105A00000AA805F0F1F8102221460EA805F0ECF8DE
:105A100002A92846FFF79CFF13B030BDF0B51C4625
:105A20004B1E3F2B93B00546164601D9FFF7F4F9FC
:105A30008DF8081000200021CDE900019DE8030049
:105A4000012200238DF80A208DF80B2004AA82E899
:105A500003000E2219460DF11A008DF80930039348
:105A60008DF818308DF8193005F0BEF80AA8FEB18F
:105A70003246034606F11007106851681E4603C6F9
:105A80000832BA423346F7D10EA8B4B123460246D3
:105A900004F1100618685968144603C40833B34269
:105AA0002246F7D102A92846FFF752FF13B0F0BDF6
:105AB0001022314605F098F8E6E71022214605F05D
:105AC00093F8EFE72DE9F74FDFF8C0A004460D4645
:105AD00016461F4600F16008FA4400F1E00B56EA52
