:020000040C00EE
:100000000008001001020008B1020008B102000857
:10001000B1020008B1020008B102000800000000AF
:10002000000000000000000000000000B102000815
:10003000B102000800000000B1020008B10200088F
:10004000B1020008B1020008B1020008B1020008C4
:10005000B1020008B1020008B1020008B1020008B4
:10006000B1020008000000000000000000000000D5
:10007000B102000800000000B1020008B10200084F
:10008000B1020008B1020008B1020008B102000884
:10009000B1020008B1020008B1020008B102000874
:1000A000B1020008B1020008B1020008B102000864
:1000B000B1020008B1020008B1020008B102000854
:1000C000B1020008B1020008B1020008B102000844
:1000D000B1020008B1020008B1020008B102000834
:1000E000B1020008B1020008B1020008B102000824
:1000F000B1020008B1020008B1020008B102000814
:10010000B1020008B1020008B1020008B102000803
:10011000B1020008B1020008B1020008B1020008F3
:10012000B1020008B1020008B1020008B1020008E3
:10013000B1020008B1020008B1020008B1020008D3
:10014000B1020008B1020008B1020008B1020008C3
:10015000B1020008B1020008B1020008B1020008B3
:10016000000000000000000000000000000000008F
:10017000B1020008B1020008B1020008B102000893
:10018000B1020008B1020008B1020008B102000883
:10019000B1020008B1020008B1020008B102000873
:1001A000B1020008B1020008B1020008B102000863
:1001B000B1020008B1020008B1020008B102000853
:1001C000B1020008B1020008B1020008B102000843
:1001D000B1020008B1020008B102000800000000EE
:1001E000B1020008B1020008B10200087103000862
:1001F000B102000800000000B10200080000000089
:10020000DFF88CD023488047234C244DAC4209DAD8
:1002100021686268A368043BA2BFC858D050FAE7BF
:100220000C34F3E71E4B1F4CA34208DA19685A68D6
:100230000020043AA4BF8850FBE70833F4E71A48CB
:1002400080471A4880470000043E000C0000002050
:10025000600400006442000C000000300000000058
:10026000043E000C0008001000000000043E000CDA
:10027000000800100000000060040020DC06000000
:1002800000000030000E0000000800100000000018
:10029000000800100D390008480200087802000824
:1002A000780200089002000879390008E902000885
:1002B000FEE7000008B50B4802F09EFE02F074FB5A
:1002C0004021022002F084FB042002F005FB002004
:1002D00002F08AFA012002F02BFBBDE8084003F08F
:1002E000E3B900BF9C3C00081D481E4AF8B5012137
:1002F000064603F059F91B4A1B4D3046002103F016
:1003000053F91A4A30460E2103F04EF9174A304687
:100310000F2103F049F900F031F84FF40037284677
:1003200001F046FD044650B1284601F06FFD013C46
:10033000C1B2A4B2284601F0B7FC002CF4D1736A14
:100340005A045ABF022373607760736A1B0454BF58
:1003500001234FF480337360284601F001FDDEE78E
:1003600000810248B03C000810000020BC3C00089E
:10037000014801F0F3B800BF0000002010B5154897
:1003800000F0B8FB144BDA68C2F30222C2F1070195
:10039000062928BF062102B1013A4FF0FF338B40F6
:1003A000DB4393409B000D4A0D4C0A49DBB282F8B7
:1003B0006B334FF40060C2F88C012368D0600822D0
:1003C00081F82E204FF41652DB688A62BDE8104097
:1003D000184700BF0000002000ED00E000E100E051
:1003E00064070020704700BF704700BF10B5074C7E
:1003F00094F83E31DB0700D410BDFFF7BFFF94F83F
:100400003E316FF3000384F83E3110BD64070020D5
:1004100008B540220C49812000F0B4FB40220B4972
:10042000822000F0AFFB40220949032000F0AAFB24
:10043000084801F0D9FB084A92F83E3143F0010325
:1004400082F83E3108BD00BFE404002024050020EE
:10045000A40400201000002064070020014801F0DF
:1004600051BD00BF10000020704700BF704700BFA3
:10047000704700BF030A022B18D0032B09D0012BB1
:1004800003D000200346136070470A4B136012200C
:100490007047C0B20228F4D8064B03EB800103EB8F
:1004A00040004B6DB0F8600013607047024B136062
:1004B0003E207047C83C0008DC3C000810B5084CE2
:1004C000236801215B6A802098472368012284F811
:1004D0003B219B6A18210020BDE81040184700BF4F
:1004E0006407002070B59E4D9E4C6E8882B000233C
:1004F000ADF80230FFF7B2FF94F83E319B0727D5E5
:100500006B78F6B20C2B10D8DFE803F055470F716B
:100510000F3C7F0F6A3224070F00934B1A78042A8E
:1005200000F0AF801B78032B0CD123685B6A01219C
:1005300080209847236801229B6A84F83B21182178
:100540000020984794F83E316FF3410384F83E3120
:1005500002B070BD844B1A78042AE3D1A9882368BD
:1005600001F59C7121441B6B012200209847E9E7AB
:1005700084F83961FFF74CFF002E6FD17A4B0322CC
:100580001A70DFE7784B002E55D102221A702368CB
:1005900030469B6900219847D4E72B7803F003038A
:1005A000022B74D0002BC0D194F83E2163F3820259
:1005B00084F83E21C6E72878226810F0030040F056
:1005C000818094F83E31156B02A9C3F38002C3F316
:1005D000C00343EA420321F8063D0222A847B1E7DF
:1005E000236862491B6B012200209847AAE7022E6C
:1005F0009BD05D4B1A78042A6BD01A782368032AA3
:100600005B6A00F09780012192E7A9886888C9B2E7
:1006100001AAFFF72FFF064680B9236801215B6A14
:1006200080209847236801229B6A84F83B2130464A
:100630001821984786E703221A70A8E7ED882368F7
:1006400001991B6B854228BF05462A460020984722
:10065000019B2D1A0344C4E90A5373E794F83E3111
:1006600013F0010540D1236801215B6A802098477F
:10067000236801229B6A84F83B2128461821984769
:1006800060E7AB886A88234483F838215AE7364B01
:1006900022681B78A888556A042B04D018B1012160
:1006A0008020A84746E72C2200F00F0302FB0343FB
:1006B0001A7AD607F3D56FF382021A720021C0B2FC
:1006C000A8473FE7012813D0022851D0536A0121DF
:1006D0002EE7CEB1012E7FF435AF94F83E3143F0D2
:1006E000040384F83E312DE71F4B04221A7029E7DA
:1006F0001D4B1B78042BE9D102A90020136B21F8B4
:10070000060D022298471DE7A88822682C2100F0D8
:100710000F0301FB0343556A1A7AD10703D4012161
:100720008020A8477EE742F004021A720121C0B27D
:10073000A84707E7002E7FF466AF2A7802F003028D
:10074000022A7FF460AFAA8812F0FF0F7FF45BAF3C
:10075000227A42F00402227201218020984761E748
:10076000B40A002064070020B10A00209D08002080
:100770000C49AB880978042901D0002BA6D103F0DD
:100780000F032C2101FB03431B7AD8079ED502A936
:10079000C3F3800321F8063D0020136B0222984723
:1007A000D0E600BFB10A002010B50C4C94F83B31E4
:1007B000022B08D1236800219B6A0846984705232D
:1007C00084F83B3110BD032BFCD1236820799B6A50
:1007D00018219847012384F83B3110BD640700209D
:1007E00010B50E4C94F83B31042B0AD0052B07D1E1
:1007F000236820799B6A18219847012384F83B31AC
:1008000010BDFFF76FFE236800221B6B11461046D8
:100810009847032384F83B3110BD00BF64070020D4
:1008200070B51A4C1A4D23682946DB6A082200204D
:10083000984794F83E31082843F0020384F83E318B
:1008400000D070BDEE886EB195F90030002B16DB3C
:100850002368042231469B6A84F83B210020BDE8CE
:1008600070401847032384F83B31FFF73BFE2368B1
:100870003246314630461B6BBDE8704018470223B4
:1008800084F83B31BDE87040FFF72CBE64070020C0
:10089000B40A0020F0B583B0092806D8DFE800F0DC
:1008A000072E383D45057682059603B0F0BD4A4BCC
:1008B0004A4C012618464FF4A0720021267003F01E
:1008C00019F9032203460272454C058945491C600B
:1008D0004548E469186240224FF48070596162F320
:1008E0008C1500211D815862986183F83B61084690
:1008F0002346019403B0BDE8F0401847364B374A11
:100900001B681B6A0020107003B0BDE8F040184758
:1009100003B0BDE8F040FFF765BD304B01221A700F
:1009200003B0BDE8F040FFF75FBD2B4D2B4A95F8B3
:100930003E3129686FF382030124022085F83E319D
:1009400085F83B41107000232C2606FB03545F1CE6
:1009500022896FF30412228122896FF3C30222815C
:10096000227A6FF38202227273B1D3B2DB0709D508
:100970000B6A20799847237A296803F0FE036FF306
:1009800041032372072F17D03B46DEE7134B124A71
:10099000197882F83A1105221A7003B0BDE8F040C8
:1009A000FFF766BD0C4A0D4B92F83A211A7003B05E
:1009B000BDE8F040FFF75ABD0023A5F838318B6A37
:1009C0002879182103B0BDE8F040184703B0BDE80E
:1009D000F040FFF749BD00BF64070020B10A0020C6
:1009E000B83D000864060020640500202DE9F041B0
:1009F0003E4C00F00F03012920F07F0094F83D6188
:100A000094F83C7184F83D01984684F83C314CD010
:100A10003FD3022937D12C2505FB0345AA6A62B1D1
:100A20002368E96A1B6B28799847D5E90A23121ACB
:100A30000344C5E90A23BDE8F0812879020713D1F0
:100A4000EA698AB12A49C9888A420DD02989C1F345
:100A50008611B2FBF1F501FB15222AB92368114674
:100A60001B6B984794F83C312C2202FB084800216C
:100A7000B8F80820C8F81C1061F30412A8F8082080
:100A80000BB9FFF791FE84F83C7184F83D61BDE835
:100A9000F0812C2202FB034211896FF3C301118103
:100AA000002BF0D1FFF7BCFEEDE72C2505FB03453D
:100AB0002A89E96842F020022A8149B9236829611C
:100AC000DB6A2879D5E90512984794F83C31E8604B
:100AD0002C2202FB0848B8F808206FF3C302A8F8DC
:100AE0000820002BCFD1FFF77BFECCE76407002066
:100AF000B40A00202DE9F041174C184F80464FF4FE
:100B0000A0720021204602F0F5FF032323722589FD
:100B1000134B236240260123124984F83B3166F3CC
:100B20008C15114B2581636100254FF4807340467D
:100B300021604A686362A3613D70904740B92368B1
:100B400005463246DB69014698472846BDE8F081F4
:100B50004FF0FF30FAE700BF64070020B10A002021
:100B600064050020B83D00086406002008B5044B69
:100B70001B68DB6B9847003018BF012008BD00BF21
:100B80006407002010F0800F00F00F03064810B437
:100B90004FF02C0404FB030314BFC3E90812C3E99C
:100BA00005125DF8044B704764070020816A826873
:100BB00030B4046BC2F31202651A954284BF521816
:100BC0008262027898BF846211074FF000031AD145
:100BD000012161F3D44343F0C04364F30603154C91
:100BE0001549246802F00F0201EB8202617BD2F802
:100BF000C42109B9416A51611361136843F0044388
:100C0000136030BC7047816A29B961F31203012176
:100C100061F3DC43E3E7C56A4468491BC4F3C625B6
:100C20004C19013CB4FBF5F464F3DC4361F31203AB
:100C3000D5E700BFA4080020A80800202DE9F04156
:100C40000678036BD0F828E08268DFF8B4C006F0BD
:100C50000F0707F16A01A3EB0E08C2F312025CF85A
:100C60002110904528BF0EEB02030C68836200251B
:100C7000002B37D0C26A9B1A3207C3F3120E18D06A
:100C80004268C2F3C622561E6EF31205B6B216FAB9
:100C900083F393FBF2F363F3DC45184B1B685B7B38
:100CA0008BB9436A4B6144F004440D610C60BDE8AC
:100CB000F081012363F3DC45104B1B685B7B6EF313
:100CC0001205002BEDD0012BEDD1DCF8A421506BE7
:100CD00003FA07F7074344F0044457630D610C60BF
:100CE000BDE8F08163F31205012363F3DC4544F0B2
:100CF00004440D610C60BDE8F08100BFA408002031
:100D0000A808002040F2DF10704700BF044BD3F862
:100D1000A42153686FF3410353600020704700BF64
:100D2000A8080020044BD3F8A421536843F0020321
:100D300053600020704700BFA8080020F0B4194D90
:100D4000067B95F8FEC100200CF0010C46B303466B
:100D50000146342708E05268013312F0100FDAB26E
:100D600018BF0121B2420AD207FB0352546824077C
:100D7000F1D50133DAB2B2424FF00101F4D301F000
:100D8000010195F8FE31C3F3800363F300006CF3B7
:100D9000410061F38200012363F3C400F0BC70479B
:100DA0000146EEE7A808002070B5114A00F00F00D8
:100DB000342303FB00235C68C4F30014B4B91D7929
:100DC0006D0713D55E69DD68DC62B14228BF31462C
:100DD00000EB400600EB860002EB80009C621C6189
:100DE00019635D62FFF7E2FE204670BD012070BD11
:100DF000A8080020044BD3F8A4311A6811B960F395
:100E00000A121A6000207047A808002000F00F02A4
:100E1000342310B403FB02F31B4CE35C40B203F039
:100E20000F03B9B10028ABBF04EB83036A33D3F8D7
:100E3000C41154F823100B6843F400130B603423DF
:100E400003FB0242002013795DF8044B43F02003BA
:100E5000137170470028ABBF04EB83036A33D3F8E8
:100E6000C40154F82300036861F3555343F08053E1
:100E70000360342303FB0242002013795DF8044B26
:100E80006FF3451313717047A808002000F00F009E
:100E9000342202FB00F20C4B99561A440029516887
:100EA000B4BF6FF3C3016FF304115160342202FB2E
:100EB000003300201A7918616FF345121A71986196
:100EC000C3E90A0018637047A80800202DE9F04321
:100ED0003B4B00F00F00342101FB00F15A18D3F80E
:100EE000A4611479D6F81CE065074AD504F0FB0428
:100EF0006FF3451413F80180147154686FF30414F0
:100F0000546054686FF3C304546013F901904FF0B8
:100F1000000C08F00F0801256CF3CF3C05FA08F12E
:100F20004CF0904CC943B9F1000F77466FF3555C14
:100F30008CB229DB1279920736D0224A126803EB71
:100F40008808527BD8F8C45104EA1E44012AC5F827
:100F500000C064F31F4702D1726B114071633422E9
:100F600002FB0030F7618188B3F8FC21C1F38310E4
:100F70000121814022EA0102A3F8FC210020BDE802
:100F8000F0830120BDE8F08308F16A0904EA0E0548
:100F900053F82990C9F800C092F8049019F0030F93
:100FA00065F30F07C9D0DAE708F16A0504EA0E0213
:100FB00053F8255062F30F07C5F800C0BDE700BF26
:100FC000A8080020A4080020034BD3F8A431986897
:100FD000C0F30D20704700BFA8080020054B93F810
:100FE000FE0100F00500A0F10500B0FA80F0400914
:100FF000704700BFA80800200748D0F8A42108B512
:10100000536843F00203536000214FF4027202F070
:1010100071FD002008BD00BFA80800202DE9F04F99
:10102000964C00F00F05814605EB4500D4F8A4313D
:101030004FF0340A05EB8000164683B052460F4647
:1010400004EB80000021D3F81C8002F053FD0AFB62
:1010500005F204EB020C04F802909CF8043043F013
:1010600004038CF80430DCF8043066F3D123CCF8A8
:101070000430C2464FFA89FBB9F1000F6DD0DCF89D
:101080000810DFF800E24FF6C07060F31201CCF8F0
:101090000810A15C7A4A01F00F010EEB81030802EF
:1010A000DB6901935EF82130CCF8203002F5E06E68
:1010B000019BCCF8143013180EEB0002012088407D
:1010C000BBF1000FCCF81C30CCF80C2080B269DAF0
:1010D00001F16A0354F823300193D3F800C04CF4B3
:1010E000004C67F3934C002F00F0848066F30A0CE9
:1010F0004CF0805CB4F8FC916FF3555C0023012246
:1011000019EA020F4FEA420E7FD00133072B1FFA74
:101110008EF2F5D112EA090F79D00023342202FBB6
:10112000054563F3995CAA8863F38912AA8040EAB3
:10113000080363F30F0A019BBBF1000FC3F800C063
:101140006ADA002F43D104EB8101D1F8C42113687E
:1011500043F4004367F3934369E0DCF80810DFF8D9
:1011600024E1402060F31201CCF80810A15C444A4D
:1011700001F00F010EEB81030802DB6901935EF8B9
:101180002130CCF8203002F5E06E019BCCF8143011
:1011900013180EEB000201208840CCF81C30CCF86C
:1011A0000C2080B2DFB104EB8101D1F8C4211368B7
:1011B00043F4004367F3934366F30A0343F0805319
:1011C0006FF3555340EA1840136060F31F4AD4F898
:1011D000A4310020C3F81CA003B0BDE8F08F01F1DA
:1011E0006A0354F823300193D3F800C04CF4004C48
:1011F00067F3934C102E39D023D9202E3AD0402EAD
:101200007FF476AF6FF30A0C72E703F00F0349EA3D
:101210000202A4F8FC2181E704EB8101D1F8C4218A
:10122000136843F4004367F39343002FC4D1102E97
:1012300018D011D9202E0BD0402EBFD16FF30A0346
:10124000BCE7082E7FF454AF032363F30A0C4FE787
:10125000012161F30A03B1E7082EAFD1032161F345
:101260000A03ABE7022161F30A03A7E7022363F352
:101270000A0C3DE7012363F30A0C39E7A8080020B4
:10128000000000306004002030B5044683B04C48B4
:1012900001F0B0F901F002FC4A4A4B4B1460A3F193
:1012A0001C0103F11C00402243F8042F834241F843
:1012B000042FF9D1454D4FF402722846002102F067
:1012C00019FCD4E90032A168C5F8002203F50062D8
:1012D000C5F80412C5F8A421C5F8A03105F5D472EB
:1012E00003F5106105F5E27542F8041BAA4201F10D
:1012F0002001F9D1364A03F5306102F11C0042F8B1
:10130000041B824201F12001F9D1324A03F58051D8
:1013100002F11C0042F8041B824201F58051F9D110
:101320009A68617B42F08102002946D142F0200296
:101330009A60DA6842F0804242F48072DA60D3F850
:10134000002842F003026FF3D752C3F80028D3F805
:101350000428002042F00202C3F804280190019AF8
:1013600042F020020192019A102060F38A12019249
:10137000019A1A611A690192019AC2F34012002A75
:10138000F8D10092009A42F010020092009A1A617D
:101390001A6900920098C0F300100028F8D10E4C92
:1013A0000E4A9861012908BF224642F440224FF0BC
:1013B000FF3159619A6103B030BD6FF34512B7E751
:1013C00080000020A408002078040020A808002045
:1013D0006C0A0020880A00201E3C00C00E3C00C0A1
:1013E0000D4B70B5342404FB0034D4E90365A369C4
:1013F000954228BF154608462A46F11802F0E0FA41
:1014000023695B1B236113B9A361284670BDA369DF
:101410002B44A361284670BDA8080020F8B5164FDC
:1014200000F00F06342404FB0674237958071ED5F8
:1014300063681B071DD4D4E90705954228BF1546EC
:101440002A4602F0BDFA6368E269256306EB4600AE
:10145000002143F0080306EB800007EB8000636087
:10146000C4E90921E162FFF7E9FB206BF8BD012027
:10147000F8BD0020F8BD00BFA80800202DE9F0410C
:10148000234E06EB8003D3F8C4311B681B0401D440
:10149000BDE8F081342505FB00656A6A002AF7D0B3
:1014A0008C08D6F8E0C10AD04FEA840E002300E091
:1014B0006A6ADCF80070D75004339E45F8D121F0F9
:1014C0000307B94219D0DCF8005016D9CF1B4FF0F2
:1014D000340C4FEAC70EA4000CFB006C00224FF046
:1014E000FF0808FA02F32B40D340DCF824700832DE
:1014F00072453B5504F10104F3D1342303FB006032
:10150000C26A436A0A441944C2624162BDE8F0817A
:10151000A808002070B4047BD4B100230E4E1846F6
:10152000342508E05268013312F0100FDAB218BF08
:101530000120A2420AD205FB036251680907F1D5D6
:101540000133DAB2A2424FF00100F4D370BC70470D
:10155000204670BC704700BFA80800202DE9F04F5E
:10156000934CD4F8A0319E695D6935405FFA85FBE4
:101570001BF0080F8FB0814607D0D4F80032092045
:101580009847D4F8A03108225A6199F80D30012B00
:1015900059D0C5F30726700704D5D4F8A0314FF40D
:1015A00080625A61310708D5D4F800320620984786
:1015B000D4F8A0314FF400625A61C5F307631A06EC
:1015C000DFB208D5D4F8003208209847D4F8A0310B
:1015D0004FF000425A617B060ED594F8FE31D4F8E4
:1015E000002243F0040384F8FE3100209047D4F831
:1015F000A0314FF080425A61F70600F1DB80B60659
:1016000000F16181C5F3074A1AF0040F40F07B81B5
:101610001AF0080F2CD11BF0040F11D0D4F8A03110
:101620005D6869070BD594F8FE31D4F800226FF39A
:10163000820384F8FE3101209047D4F8A0315D6028
:101640000FB0BDE8F08F1BF0100FA2D0D4F8A0317E
:101650006FF304169E61186AC0F34342022A00F039
:101660003282062A00F02F8246F010069E6190E733
:10167000D4F8A4319A69DF695B690093C7F30F4717
:10168000002117EA1247019162D03B460D460E46F3
:10169000CDF808B0B846D90752D506F1700A04EB68
:1016A0008A03009A5B6899F80D009F681740F9B2A9
:1016B00001F0010B002864D11A6901920A074DD587
:1016C000342303FB0641019B91F804C0C3F341732B
:1016D000C3EB4373DB00183360F3451C0B6181F8E7
:1016E00004C0342303FB0643002158686FF3041041
:1016F0005860D4F804320846984704EB8A0308215E
:101700005B689960BBF1000F19D099F80D3043B3B5
:10171000342303FB0640026B836A9A4240F0DC816B
:101720004268C36A03616FF30412426004EB8A0AE1
:10173000D4F80432012128469847DAF804309F6033
:101740000135EDB258FA05F32E46A4D1DDF808B004
:10175000D4F8A0314FF400225A615CE7BBF1000FCE
:10176000EDD0342303FB0640019BC3F31201D0E903
:101770000A23D21A521A9918436AC1621A44426261
:10178000C6E70A0740F18181342303FB064C012898
:101790009CF804306FF345138CF80430A1D1DCF8C9
:1017A0001030DCF82C100B44CCF8103099E700BF57
:1017B000A8080020D4F8A411B64A4B6843F00103EE
:1017C0004B6002F11C0752F8040B036843F00063FE
:1017D0006FF3555397420360F5D1D4F8A031AE486A
:1017E000AE4AAF4F4FF0400CC3F824C09862C3F824
:1017F000042130303032C3F80871C3F80C0130379F
:10180000C3F8102130300022C3F81471C3F8180156
:101810000B920B9A42F020020B920B9A102060F36D
:101820008A120B920B9A1A611A690B920B9AC2F3E5
:101830004012002AF8D10C920C9840F020000C9035
:101840000C9862F38A100C900C9A1A611A690C9227
:101850000C9AC2F34012002AF8D10D920D9A42F070
:1018600010020D920D9A1A611A690D920D9AC2F327
:101870000012002AF8D14FF00113CB614B6999F89F
:101880000D0043F00F034B610B6943F00F030B6135
:101890000B68012862F30A130B6008BF4A63636890
:1018A000D4F800226FF30413636063686FF3C3031B
:1018B000636004209047D4F8A0314FF48052B606FC
:1018C0005A617FF59FAED4F8A821D4F800121368AE
:1018D0006FF30A03136094F8FE3143F0050384F8B4
:1018E000FE3102208847D4F8A021D3680921C5F32E
:1018F000074A61F38D231AF0040F4FF40051D360AF
:1019000051613FF485AED4F8A4319A691B69009304
:1019100093B2002B00F0B4800026CDE902BAB6469F
:101920009B46DD0740F1A38034230EF16A0703FBD9
:101930000EF2D4F8A41154F8273014F80280D3F82A
:1019400008C04D6B0098019108F00F0825FA08F5C2
:10195000ED01EDB2054399F80D1005EA0C0522449E
:1019600005F0010C09BB1969BCF1000F7ED031F004
:10197000604306D1D2E90A10536AD162091A1944A8
:101980005162342303FB0E410A6B8B6A9A4266D183
:101990004B686FF3C3034B60D4F80432022146F066
:1019A0008000984754F8273060E001294BD1280681
:1019B00049D508F16A0AD06A926A54F82AA00490BC
:1019C000121ADAF818A005922FD003321FFA8AF003
:1019D0004FEA920A5045024602D280000590924694
:1019E000BAF1000F21D0342202FB0E4008F1780832
:1019F000049054F828200790406A069000EB8A0A69
:101A0000CDE908E30198DDF810809646069A52F871
:101A1000043BCEF800305245C8F82420F7D1079A8D
:101A20000190DDE908E3D26A0492342202FB0E4AF7
:101A3000049A05989046DAF8242080440244CAF8B3
:101A40002C80CAF82420BCF1000F0FD0342303FBF4
:101A50000E4CDCF83020DCF828309A4222D03423B7
:101A600003FB0E40FFF7EAF854F827309D6001367B
:101A7000F6B25BFA06F3B6467FF453AFDDE902BA7D
:101A8000D4F8A03100225A61C2E5BBF1000F7FF407
:101A90003FAE54E66C0A00204000100050001000D9
:101AA00060001000DCF8043001296FF3C303CCF8A8
:101AB00004307FF471AF019A536B01FA0EF123EAFF
:101AC0000101516368E7C0F30A1100F00F00FFF74E
:101AD000D5FCD4F8A031C7E504EB8A0AFFF766F815
:101AE000DAF804302BE600BF08B5034800F082FDA9
:101AF000BDE8084000F0D2BF8000002008B50348D0
:101B000000F06CFDBDE8084000F0D0BF8000002070
:101B10000D283FD8DFE800F0303E3E3E373E0E074E
:101B2000071C22293E154FF000421B4BD3F8A03171
:101B30005A617047184BD3F8A0314FF400625A61D4
:101B40007047154BD3F8A0314FF400225A6170470B
:101B5000114BD3F8A03108225A6170470E4BD3F8CD
:101B6000A0314FF480625A6170470B4BD3F8A0311B
:101B70004FF400525A617047074BD3F8A0314FF031
:101B800080425A617047044BD3F8A0314FF4805221
:101B90005A6170470022C8E7A80800206A31024B4A
:101BA00053F8213098607047A8080020034B03EBDE
:101BB0008101D1F8C4319860704700BFA8080020A7
:101BC000034BD3F8A421536918435061704700BFF9
:101BD000A8080020034BD3F8A4211369184310610F
:101BE000704700BFA808002038B504460023022231
:101BF000032543618361C36101211044A574A2716F
:101C0000227300F06FFB08B9002038BD012104F1F8
:101C1000080000F067FB0028F6D004F10E00012157
:101C2000BDE8384000F05EBB0E4B1B78042B17D18B
:101C30008369ABB110B583780B4A0C46204603F09C
:101C40000F0123F07F0382F83C1182F83D3101F04F
:101C5000B7FF002281B22046BDE8104001F086BAED
:101C600002207047B10A0020640700200C4B1B784B
:101C7000042B13D183698BB130B48378094D0C46A2
:101C8000204603F00F0423F07F03114685F83C4102
:101C900085F83D31002230BC01F068BA022070475F
:101CA000B10A002064070020104B1B78042B1AD1C6
:101CB0008369C3B110B583780D4A0C4603F00F0158
:101CC00023F07F0382F83C1182F83D3100F096FA50
:101CD00020B900F045FA00F0C9F918B9204600F023
:101CE000A5FA002010BD0220704700BFB10A0020F5
:101CF00064070020184B1B78042B17D18369ABB104
:101D00008378164903F00F002C2202FB001223F007
:101D10007F0381F83D3181F83C0192F90430002BBA
:101D2000B4BF938B93891BB9002070470220704782
:101D300010B582B000F062FA044600F011FA14B156
:101D4000002002B010BD00F091F90028F9D10190F7
:101D500000F006FA0198F4E7B10A002064070020B9
:101D6000114B1B78042B00D070478369002BFBD0EC
:101D700010B483780D4903F00F042C2223F07F0365
:101D800002FB041281F83D3181F83C419368D90689
:101D900006D4137A9B0703D55DF8044BFFF7AABF5F
:101DA0005DF8044B704700BFB10A002064070020B3
:101DB000144B1B78042B01D0002070478369002B43
:101DC000FAD0027A104902F00F002C2322F07F0291
:101DD00003FB001381F83D2181F83C019A689206CB
:101DE000EAD593F90420002AB4BF988B988900B1F2
:101DF000704700B583B0019000F088F9019803B0F6
:101E00005DF804FBB10A00206407002038B5204BC0
:101E10001B78042B38D18369B3B3027A1D4C02F0CE
:101E20000F002C2322F07F0203FB004384F83D21A6
:101E300084F83C019A689206014625D593F904205E
:101E4000002A0CDB9B894FF0FF3563B92C2303FB81
:101E50000144A3890BB900F059F9284638BD9B8B82
:101E60004FF0FF355BB100F0F9F994F83C112C23E9
:101E700003FB014305B293F90430002BE6DA2C236F
:101E800003FB0144A38BE5E74FF0FF35E5E700BF17
:101E9000B10A002064070020144B1B78042B00D0EB
:101EA00070478369002BFBD030B5114A837B114DFD
:101EB000044692E8030083B06A4682E8030003F018
:101EC0000F0185F83C1123F07F0310460821002202
:101ED00085F83D3101F04AF90022022104F1160093
:101EE00001F044F900F03CF903B030BDB10A002024
:101EF000F83D000864070020704700BF704700BF2E
:101F0000704700BF38B5414B93F83E21940704D584
:101F10003F4A017894888C4200D038BD51782039EE
:101F200004460329F9D8DFE801F0123A5E0211787D
:101F30002129F2D193F83E01518802466FF3410204
:101F4000C9B2204683F83E21FFF7DAFF38BD127888
:101F5000212AE2D193F83E0193F83C212D496FF3F9
:101F600041002C2583F83E0105FB023202E00B788C
:101F7000002BD2D093689B06F9D500F09DF9A061A3
:101F800000F06CF9207700F069F9607700F066F9ED
:101F9000A07700F0BBF82046FFF7AEFF38BD1278FF
:101FA000A12ABAD193F83E1193F83C216FF3410175
:101FB0002C2083F83E1100FB02329368D806FCD433
:101FC000137A9907F9D5A06900F05CF9207F00F039
:101FD0002DF9607F00F02AF9A07F00F027F9BDE815
:101FE000384000F0BDB81178212996D193F83E1100
:101FF0009078D5780A466FF3410240EA052183F8CC
:102000003E212046A182FFF779FF38BD64070020FA
:10201000B40A0020B10A002038B5124B1B78ABB1CE
:10202000114C94F83E3194F83D5194F83C11002243
:102030009B0745EA0105A4F83C2108D405F00F03ED
:1020400025F07F0584F83C3184F83D5138BDFEF71A
:1020500049FA05F00F0325F07F0584F83C3184F838
:102060003D51F3E7B10A0020640700202DE9F0415B
:10207000244C254D23689B6B984794F83C312C26C3
:1020800006FB0342804692F9041000294FF06407D2
:102090001FDB926892062FD42A7802F0FF0112B358
:1020A000052923D006FB03431B7A5B0721D4236851
:1020B0009B6B9847804503D07B1EDBB2FFB11F4668
:1020C00094F83C3106FB0342804692F90410002943
:1020D000DFDA9068C0F300100028DDD1127A910792
:1020E000DAD5BDE8F0810220BDE8F0810320BDE82B
:1020F000F0810120BDE8F0810020BDE8F0810420DE
:10210000BDE8F08164070020B10A002070B5134DCE
:1021100095F83C412C2303FB0454237A99071CD5E2
:102120002B68A269DB6A616920799847A268E06040
:1021300000211207034621610FD470B92289A169D9
:10214000207942F008022281228963F3451222811C
:102150002B68BDE870409B6A184770BD640700207B
:102160002DE9F041224D95F83C412C2303FB04540A
:10217000A368D90627D4237A9A0724D5D4E907126D
:1021800023891C4EE26243F0100300224FF40068E2
:102190002381A162E261C6F88C80BFF34F8FBFF349
:1021A0006F8F2B68E16A1B6BA26A2079124F9847E8
:1021B000D4E90A311B1A0144C4E90A31C6F80C807B
:1021C0003B78012B01D0BDE8F08120790307FAD0DC
:1021D000A668C6F30016002EFAD1238943F0100337
:1021E00023812B6832461B6B98473E70BDE8F08117
:1021F0006407002000E100E0980400200A4A92F8F9
:102200003C312C2101FB032393F90420002A04DB39
:10221000D868003018BF01207047D8695B6A9842BF
:102220002CBF0020012070476407002030B40A4D05
:1022300095F83C112C2404FB0154E369626A934233
:10224000FDD22C2202FB0152116AC854D36901331A
:10225000D36130BC704700BF64070020084A92F881
:102260003C312C2101FB0323DA683AB1D3E9041095
:10227000013A405C0131C3E903217047FEE700BF2A
:102280006407002010B40B4C94F83C112C2202FB84
:102290000142536AD269033B9A42FDD22C2303FBCD
:1022A00001435DF8044B196A8850DA690432DA6137
:1022B000704700BF64070020094991F83C312C2287
:1022C00002FB0312D268032AFDD92C2000FB031362
:1022D000D3E90410043A4058DA60043119617047B8
:1022E00064070020002937D001392DE9F843C9B22D
:1022F000831D06260546DFF8648016FB01362C2771
:1023000015E06A8819892878187162F38C11CAB2AD
:1023100042F0030219811A72020605F1060504D47F
:10232000D8F800209969936A9847B54211D02C7863
:10233000D8F800106A88D1F81C9029792046C8473F
:1023400004F00F0407FB04830028DAD00020BDE866
:10235000F8830120BDE8F88301207047640700205E
:10236000024A936818439060704700BF7440005061
:10237000024A936823EA000090607047744000505E
:10238000024A136918431061704700BF744000503F
:10239000014B5868704700BF74400050014BD86033
:1023A000704700BF74400050024B186900F4706021
:1023B000704700BF00400050014B1861704700BFDC
:1023C00000400050024B800003445868704700BF33
:1023D00028400050024B800003445960704700BF02
:1023E00028400050800000F1A04000F5804001230B
:1023F000D0F8A02003FA01F11143C0F8A0107047F3
:10240000800000F1A04000F580400122D0F8A0300B
:1024100002FA01F123EA0103C0F8A030704700BFBF
:10242000C90241F40801034B41EA0011C3F88C10C2
:10243000704700BF00400050034AD2F88C3023F0B0
:102440000103C2F88C30704700400050034AD2F8B4
:102450008C3043F00103C2F88C30704700400050CC
:10246000034BD3F88C00C04300F00100704700BF5D
:1024700000400050024BD3F89000C0F3803070470A
:1024800000400050084B084AD3F88C00D3F8903035
:102490001B04D2F88C3043F0020354BF00F001005B
:1024A0000220C2F88C30704700400050054BD3F832
:1024B0008C20D2075ABFD3F89000C0F309006FF008
:1024C0000040704700400050024BD3F89000C0F32A
:1024D000C0307047004000500004074B00F47020EB
:1024E00040F00100C3F8CC101A46C3F8C800D2F877
:1024F000C4309B04FBD47047004000500004064ADF
:1025000000F47020C2F8C800D2F8C4309B04FBD499
:10251000D2F8CC00704700BF00400050024A9368D8
:1025200023EA00009060704760410050024A9368BF
:1025300018439060704700BF60410050014B5868DD
:10254000704700BF60410050014B1861704700BFE9
:1025500060410050014BD860704700BF604100509F
:10256000024A536918435061704700BF3C41005014
:10257000014B5869704700BF3C410050024A136844
:1025800018431060704700BF3C410050024A136876
:1025900023EA0000106070473C410050024A9368F3
:1025A00018439060704700BF3C410050024A936856
:1025B00023EA0000906070473C410050024A536992
:1025C00018435061704700BF74400050024A53697D
:1025D00023EA00005061704774400050030F03EB82
:1025E0004303034A20F0704042F82300704700BFC5
:1025F00010440050030F03EB4303034A20F07040E4
:1026000042F82300704700BF14440050030F064AED
:1026100003EB430320F0704052F82330184214BFFC
:1026200001200020704700BF0C440050124BDB68B3
:10263000DA0710B51CD511480F4A1368DB0710D410
:10264000946891689268C2F30642C4F30364531C11
:10265000C1F3062204FB033302FB0000B0FBF3F0DE
:1026600010BD936803F07F030133B0FBF3F010BD9E
:1026700001F016F8E0E700BF1047005000366E0189
:10268000034BDB68DB0701D401F00AB8014870474F
:102690001047005000366E0108B501F001F8084BF4
:1026A0001A69D2070BD45A695B69C3F30363013318
:1026B000C2F306225B0002FB0000B0FBF3F008BD92
:1026C00010470050054B06491A6908681B6A02F05A
:1026D000010203F001039040D840704700460050CB
:1026E000C0FF002008B5084B9B69DB0309D4FFF746
:1026F000D3FF054B9B6903F007030133B0FBF3F0F5
:1027000008BDFFF793FFF4E70046005008B5FFF758
:102710008DFF044BDB6903F03F030133B0FBF3F0A3
:1027200008BD00BF0046005008B50D4B5B6A03F4BE
:102730004033B3F5003F0FD063B1B3F5803F14BF12
:1027400000204FF40040064B5B6ADBB20133B0FB64
:10275000F3F008BD0348F6E7FFF768FFF3E700BFB3
:102760000046005000366E0110B5124CA36A03F00B
:102770000303032B0BD01BB1022B11D0002010BD83
:102780000D4A2369106803F00103984010BDFFF75C
:102790004DFFA36AC3F308430133B0FBF3F010BD50
:1027A000FFF77AFFA36AC3F308430133B0FBF3F0EA
:1027B00010BD00BF00460050C0FF0020034B044A7C
:1027C0005B69106803F00103D84070470046005071
:1027D000C0FF0020034AD36823F480331843D0603D
:1027E000704700BF00460050034A936923F48033CA
:1027F00018439061704700BF00460050034A536A77
:1028000023F4403318435062704700BF0046005025
:10281000034A936A23F0030318439062704700BF92
:1028200000460050074AD36828B143F4807343F050
:102830000103D360704723F4807323F00103D36056
:10284000704700BF10470050054AD2F8C4301B073C
:10285000FBD4044AD36823F040031843D060704788
:102860000040005000430050054AD2F8C4301B0716
:10287000FBD4044AD36823F080031843D060704728
:102880000040005000430050034AD368013823F051
:10289000FF030343D360704700460050034A136AA6
:1028A000013823F0010303431362704700460050D0
:1028B000034A1369013823F001030343136170478E
:1028C00000460050034A5369013823F001030343D3
:1028D0005361704700460050034A9369013823F062
:1028E000070303439361704700460050034AD369CE
:1028F000013823F03F030343D36170470046005083
:10290000034A536A013823F0FF03034353627047BD
:1029100000460050054A936A23F0FF73013823F400
:10292000803343EA00439362704700BF0046005083
:10293000014B5860704700BF00460050014B986043
:10294000704700BF00460050034B1B68184214BF7D
:1029500001200020704700BF00460050064B9FED4D
:10296000077A5B69DBB207EE903AF8EEE77A67EE3A
:10297000877A17EE900A704700420050ED0DBE3B7B
:10298000074B9FED087A5B69C3F3072307EE903A84
:10299000F8EEE77A67EE877A17EE900A704700BF85
:1029A00000420050EC51B83C034A536923F4803391
:1029B00023F002035361704710470050034A5369E4
:1029C00043F4803343F002035361704710470050D3
:1029D0000F4B5A6942F001025A615A6901380006E8
:1029E000013942F0100240EA01205A6158615A69E7
:1029F00042F040025A615A6922F010025A615A6943
:102A000042F480225A611A695207FCD5704700BF10
:102A100010470050014B024A5A617047104700505E
:102A2000030001001A4A5368012843F4801310B5CB
:102A3000536011D0174C00F037FE174B2268A3FBF0
:102A40000232930C642202FB03F222B1002300BF86
:102A500001339A42FBD110BD53680E4C23F480130E
:102A6000536000F021FE0C4A2368A2FB03239B0C59
:102A7000642202FB03F222B1002300BF01339A4219
:102A8000FBD1034A536843F400235360D3E700BFEC
:102A900010470050C0FF002083DE1B43024B4FF461
:102AA00040325A60704700BF00420050024B4FF462
:102AB00040329A60704700BF00420050024B1869D4
:102AC000C0F38000704700BF10470050094B1A68E0
:102AD000D20704D401225A601A68D007FCD5064BED
:102AE0001A68910505D54FF400729A601A6892052C
:102AF000FCD4704700420050004400500349044B8E
:102B000001204FF4007288605A6070470042005004
:102B100000440050054B186810F0010005D0D3F8B0
:102B2000000280F40070C0F3402070470042005063
:102B3000054AD2F8C4309B06FBD4044A536923F0FB
:102B400001035361704700BF004000500043005034
:102B5000054AD2F8C4309B06FBD4044A536943F0BB
:102B600001035361704700BF004000500043005014
:102B7000034AD2F8C4309B07FBD4024B586070471D
:102B80000040005000430050034AD2F8C4305B07B5
:102B9000FBD4024B98607047004000500043005047
:102BA000044AD2F8C4301B07FBD4034BDA68104345
:102BB000D86070470040005000430050054AD2F8EA
:102BC000C4301B07FBD4044AD36823EA0000D0605A
:102BD000704700BF0040005000430050054AD2F843
:102BE000C4301B07FBD4044AD36843F01003D360FE
:102BF000704700BF004000500043005048B9054AEC
:102C0000D2F8C4301B07FBD4034AD36843F0100347
:102C1000D36070470040005000430050074AD2F88C
:102C2000C4301B07FBD4064AD36818B123F4807361
:102C3000D360704743F48073D36070470040005006
:102C40000043005010B40A4AD2F8C4301B07FBD42A
:102C5000084C8000E3684FF47022824001FA00F0D3
:102C600023EA02010143E1605DF8044B704700BFB5
:102C7000004000500043005010B4094AD2F8C4305C
:102C80001B07FBD4074C4FF48052E368824001FAE3
:102C900000F023EA02010143E1605DF8044B704754
:102CA0000040005000430050074AD2F8C4301B07D0
:102CB000FBD4064AD36818B123F48063D36070470D
:102CC00043F48063D36070470040005000430050DD
:102CD000054AD2F8C4301B07FBD4044AD36823F456
:102CE00080631843D060704700400050004300509C
:102CF000034B186880F00800C0F3C000704700BFA5
:102D000000430050104AD2F8C4301806FBD40F49D3
:102D10000D4ACB6923F03003CB61D2F8C4301907D8
:102D2000FBD40A49084ACB6843F00803CB60D2F8C9
:102D3000C4305B07FBD4054B034A08219960D2F8E5
:102D4000C430002BFBD170470040005000430050BE
:102D5000054AD2F8C4301B06FBD4044AD36943F0B9
:102D60003003D361704700BF004000500043005063
:102D7000054AD2F8C4301B06FBD4044AD36943F099
:102D80003103D361704700BF004000500043005042
:102D9000064AD2F8C4301B06FBD4054AD36923F097
:102DA000310343F02003D361704700BF004000505F
:102DB00000430050024B986900F00100704700BFCB
:102DC0000043005070B50D4D0D4E6B6823F48033F9
:102DD0006B60746800F064FC0A4BA3FB0030000DCC
:102DE00024F4702323F03003013843EA0043736076
:102DF0006B6823F400336B6070BD00BF1047005058
:102E0000004700506BCA5F6B044B186800F4607099
:102E1000A0F56070B0FA80F040097047104700508C
:102E2000024A536843F03003536070470047005034
:102E3000024A536843F00103536070470047005053
:102E4000024A536823F00103536070470047005063
:102E5000024B186800F00100704700BF00470050A7
:102E6000034A536823F4803323F00203536070470E
:102E700010470050034A536843F4803343F0020381
:102E80005360704710470050024A536843F4803340
:102E900053607047104700500D4A08B593680138D9
:102EA00023F4FE0343EA0043936000F0FDFB094A6C
:102EB000094B1268A3FB0232930C322202FB03F28D
:102EC00022B1002300BF01339A42FBD108BD00BFED
:102ED00010470050C0FF002083DE1B43F0B583B0D5
:102EE0003F4C089D002863D0E06840F4807040F0BB
:102EF00001000129E0600FD0394B9A68681E22F06A
:102F00007F02104398605A6842F001025A601A68C2
:102F1000D207FCD503B0F0BD4FF0C0643049314852
:102F20004F68314E47F001074F604F6847F0100778
:102F30004F608F6804FB03F43840B4FBF2F4013AAD
:102F4000A6FB047640EA02605F1EB30E013B40EA36
:102F5000072040EA034088604B6843F040034B6021
:102F60004B6823F010034B604B6843F480234B60A5
:102F70000B685807FCD54B68194A23F001034B60D6
:102F80001368D907FCD41948A0FB0430C00E854251
:102F900022D3174B6008A3FB0030C00E854201D23C
:102FA000FFF77AFF284603B0BDE8F040FFF774BF93
:102FB000E06820F4807020F001000129E0609BD1DE
:102FC000CDE9002300F06CFB0A4CA4FB0034A40CF8
:102FD000A405DDE90023A1E7FFF75EFFD9E700BF05
:102FE00010470050FF8080F0ABAAAAAA8988888881
:102FF000B7600BB683DE1B4330B53A4AD36804464C
:1030000023F48033D36083B0FFF760FDE379002BB6
:1030100061D1607A344AD2F8C4301B07FBD43349FB
:10302000314ACB6823F080030343CB60D2F8C4302D
:10303000002BFBD1207AFFF7F5FC2A4B227CD868C5
:10304000A17920F0FF00013A0243DA601869627C3E
:1030500020F00100013A02431A61186AA27C20F0B4
:103060000100013A02431A625869E27C20F0010033
:10307000013A02435A6121BBE1781D4A99B953686C
:1030800043F4803343F002035360E368B3F5803FB9
:1030900004D1144AD36843F48033D36003B0BDE84D
:1030A000304000F001BB5368A08823F4803323F044
:1030B00002035360A578237862780095FFF70EFF2E
:1030C000E3E7FFF77FFE0A4A136803F46073B3F582
:1030D000607FF9D1D0E7FFF715FE044A136819079E
:1030E000FCD496E7004600500040005000430050DA
:1030F00010470050024B1868C0F38000704700BFB3
:103100001047005010F0010302D00FE0202B0BD02D
:10311000013320FA03F2D207F8D5202B04D0044A59
:10312000002042F823107047012070470023F6E783
:10313000BC0A00200B4B10B55A68002402E0013491
:10314000202C0DD022FA04F3DB07F8D5064B53F8F8
:10315000243003B198470123024A03FA04F4D460EF
:1031600010BD00BF74400050BC0A00202DE9F84F8C
:10317000DFF8A8B081460E469BF83CA19046002A95
:1031800042D01788CE1BB6B22C2404FB0AB400250B
:10319000EEB1A368DB06FCD4FFF730F818B304F1F6
:1031A0001C0029C82D1AB54228BF35462A461844A6
:1031B00009EB070100F0B4F9ABB2E2691F44F31A5E
:1031C0002A4435469EB2BFB2E261002EE1D12C23E3
:1031D00003FB0ABABAF80830C3F38613AB420DD02A
:1031E0003046BDE8F88FFEF7BBFFB8F1000F0DD1F8
:1031F000FEF73CFF0028CBD0BDE8F88F064B01223C
:103200001A703046BDE8F88F1746BDE7A8F8007081
:103210000520BDE8F88F00BF980400206407002057
:1032200052B18B18013802440139581E11F8013F80
:1032300002F801398842F9D1704700BF2DE9F04109
:10324000254B07460C4693F83C811646002A3DD094
:1032500015884C1BA4B22C2202FB083854B3D8F8B2
:103260000830DB06FBD4FEF7C9FF30B3D8E90821EC
:10327000D8F81C00091AA14228BF21461FFA81FE76
:1032800000F1FF3C7B1959B162440A4401EB030C85
:1032900013F8010B02F801099C45F9D1D8F81C007C
:1032A000A4EB0E0401447544A4B2C8F81C10ADB2DE
:1032B000002CD4D12046BDE8F081FEF751FF3EB985
:1032C000FEF7D4FE0028C9D0BDE8F0811546C2E75C
:1032D00035800520BDE8F081640700202DE9F84322
:1032E000214B81460E4693F83C419046002A33D04C
:1032F0001788CE1BB6B22C2202FB0434F6B1A368A9
:103300001B07FCD4FEF77AFFD8B1E568D4E9043195
:10331000B54228BF35462A46194409EB070000F09C
:10332000FFF8D4E90312ABB2F61A491B1F44154447
:10333000B6B2BFB2C4E90315002EE0D13046BDE8F5
:10334000F883FEF7E3FEB8F1000F07D1FEF78EFE1B
:103350000028D3D0BDE8F8831746CCE7A8F8007062
:103360000520BDE8F88300BF640700202DE9F04187
:10337000274B07460C4693F83C811646002A40D05E
:1033800015884C1BA4B22C2202FB08386CB3D8F869
:103390000830DB06FBD4FEF731FF48B308F10C011F
:1033A0000EC98C42204628BF084613441FFA80FCF1
:1033B0007A1958B10244013A00EB030E13F8011BCD
:1033C00002F801199E45F9D1D8F80C10D8F8103040
:1033D000A4EB0C04091A65441844A4B2C8F80C10F4
:1033E000ADB2C8F81000002CD1D12046BDE8F08164
:1033F000FEF78CFE3EB9FEF739FE0028C6D0BDE8C8
:10340000F0811546BFE735800520BDE8F08100BF9B
:1034100064070020F8B50D4607460E4CBDB1A36801
:10342000DB06FCD4636A206AAB422E469CBF1E4674
:10343000ED1A3246394694BFADB2002500F070F85F
:10344000E3693344E361FEF78BFE002DE7D12846A4
:10345000F8BD00BF64070020FFF7DCBFF8B50D46DC
:1034600007460C4CA5B1A3689B06FCD5E6686169CC
:10347000AE4228BF2E463246384600F051F8E36887
:10348000AD1BADB29E1BE660FEF740FE002DEAD1FB
:103490002846F8BD64070020FFF7E0BF2DE9F041A2
:1034A0001E4B064693F83C41884681B30F88C61BE5
:1034B000B6B22C2202FB0434DEB1A368DB06FCD4D6
:1034C000FEF79CFEC0B104F11C0029C82D1AB542BC
:1034D00028BF35462A461844002100F00BFBABB24A
:1034E000E269F61A1F441544B6B2BFB2E561002E78
:1034F000E3D13046BDE8F081FEF732FEB8F1000FAF
:1035000007D1FEF7B3FD0028D6D0BDE8F0810F4605
:10351000CFE7A8F800700520BDE8F081640700201F
:10352000130911D051F804CB40F804CB51F804CB67
:1035300040F804CB51F804CB40F804CB51F804CB4D
:1035400040F804CB013BEDD112F00F0305D011F888
:1035500001CB00F801CB013BF9D1704701F0FC032E
:10356000184401F0030110B40369C900F8248C4029
:1035700023EA0403036103695DF8044B02FA01F1D5
:1035800019430161704700BF436F10B44900032421
:103590008C4023EA04034367436F5DF8044B8A4081
:1035A0001A434267704700BF01F0FC030344F0B4C4
:1035B00001F003041D691C4FE400F826A64025EA2B
:1035C00006051D61456F4FEA410C032606FA0CF60D
:1035D00025EA0605B84245671ED0144DA8421BD007
:1035E0005768167ACD0800EB85058F40476001F0DB
:1035F0000701286C890007278F4020EA070028640C
:10360000286C06FA01F10143296412781969A24075
:103610000A431A61F0BC7047056E012606FA01F1F3
:1036200025EA01010166F0E7008E0248008F02489A
:10363000CB0800EB830001F0070110B4036C890094
:1036400007248C4023EA04030364036C5DF8044BF5
:1036500002FA01F119430164704700BF72B60D4BC5
:103660000D4A9A60BFF34F8F62B6D3F888200B489B
:1036700042F47002C3F888205A6941F2140122F022
:1036800008025A61435823F00F0343F003034350E9
:10369000704700BF00ED00E0000000080010005877
:1036A00000487047001BB7001C4BDB68D90310B5FE
:1036B0001DD51B4BDB68DA072CD51A48184A13684E
:1036C0005B0716D4936803F07F030133B0FBF3F07C
:1036D000124B1549DA681B69D2B203F001030132BB
:1036E0000133B0FBF2F0B0FBF3F0086010BD0D4801
:1036F000EEE7946891689268C2F30642531CC4F3E3
:103700000364C1F3062204FB0333B0FBF3F002FBB6
:103710000000DDE7FFF7C4FFD0E700BF0046005020
:103720001047005000366E01C0FF002030B56C4BD2
:103730001A68D10787B006D45A6842F001025A606D
:103740001A68D207FCD5674B1A68950511D59A6897
:10375000002142F400729A600191019B41F64B52A4
:10376000934206D800BF019B01330193019B934212
:10377000F8D95D4A5368002143F400235360029155
:10378000029B40F6C312934206D800BF029B01334E
:103790000293029B9342F8D9534C544D636823F42F
:1037A000803323F0020363606B6813F0300F77D12E
:1037B0004D4B4F495A6842F001025A605A6842F034
:1037C00010025A6099605A6842F040025A605A6882
:1037D00022F010025A605A6842F480225A601A6835
:1037E0005407FCD55968404A21F00101596013681B
:1037F00013F00103FBD13F493F4CC868032540F457
:103800008030C8604B610B610B624B62CB618D6194
:10381000516821F04001516094600393039B40F68E
:10382000B732934206D800BF039B01330393039B37
:103830009342F8D92C4A13685807FCD52F4B936054
:1038400000230493049B41F29312934206D800BFD5
:10385000049B01330493049B9342F8D9224A1368D2
:103860005907FCD5264B936000230593059B41F235
:103870006F72934206D800BF059B01330593059BE9
:103880009342F8D9184A13685B07FCD51D49194BB8
:1038900005200022C8605A60FFF706FF07B030BD60
:1038A0006B6823F4702323F030036B60FFF7F8FE9E
:1038B000154B6A68A3FB00131B0D013B42EA03434F
:1038C0006B60E36823F00103E360636823F4003373
:1038D0006360236803F46073B3F5607FF9D167E731
:1038E0000042005000440050104700500047005074
:1038F000004F130100460050004F0701004F040124
:10390000004F0301604100506BCA5F6B10B54FF070
:1039100000530FCB034C84E80F00FFF79FFEFCF72A
:10392000C9FC10BDC4FF00200C4A08B513688BB158
:10393000033020F003000A491844884202D2106084
:10394000184608BD00F012F80C2303604FF0FF3357
:10395000184608BD034B1360EAE700BF9C04002033
:10396000C0FF0020400B0020704700BF014B1868CB
:10397000704700BF3000002070B50D4E0D4D761B16
:10398000B61006D00024013455F8043B9847A642EF
:10399000F9D1094E094D761BFFF7E6FFB61006D0A8
:1039A0000024013455F8043B9847A642F9D170BD74
:1039B00060040020600400206004002060040020F7
:1039C000844641EA000313F003036DD1403A41D32A
:1039D00051F8043B40F8043B51F8043B40F8043BE9
:1039E00051F8043B40F8043B51F8043B40F8043BD9
:1039F00051F8043B40F8043B51F8043B40F8043BC9
:103A000051F8043B40F8043B51F8043B40F8043BB8
:103A100051F8043B40F8043B51F8043B40F8043BA8
:103A200051F8043B40F8043B51F8043B40F8043B98
:103A300051F8043B40F8043B51F8043B40F8043B88
:103A400051F8043B40F8043B51F8043B40F8043B78
:103A5000403ABDD2303211D351F8043B40F8043B18
:103A600051F8043B40F8043B51F8043B40F8043B58
:103A700051F8043B40F8043B103AEDD20C3205D328
:103A800051F8043B40F8043B043AF9D2043208D020
:103A9000D2071CBF11F8013B00F8013B01D30B8892
:103AA00003806046704700BF082A13D38B078DD070
:103AB00010F003038AD0C3F10403D21ADB071CBF42
:103AC00011F8013B00F8013B80D331F8023B20F8AC
:103AD000023B7BE7043AD9D3013A11F8013B00F8E5
:103AE000013BF9D20B7803704B7843708B7883706D
:103AF00060467047F0B4860743D0541E002A3ED07B
:103B0000CAB2034602E014F1FF3438D303F8012BA4
:103B10009D07F8D1032C2BD9CDB245EA05250F2CF2
:103B200045EA054516D9A4F110073F0903F120061F
:103B300006EB071603F1100242E9045542E902556B
:103B40001032B242F8D104F00F040137032C03EB1A
:103B500007130DD91E462246043A032A46F8045B91
:103B6000FAD8221F22F003020432134404F00304A3
:103B70002CB1C9B21C4403F8011B9C42FBD1F0BC20
:103B8000704714460346C5E700000000000000002F
:103B90000000000000000000000000000000000025
:103BA0000000000000000000000000000000000015
:103BB0000000000000000000000000000000000005
:103BC00090F800F06DE9024520F007016FF0000C5D
:103BD00010F0070491F820F040F049804FF0000405
:103BE0006FF00700D1E9002391F840F000F10800E0
:103BF00082FA4CF2A4FA8CF283FA4CF3A2FA8CF318
:103C00004BBBD1E9022382FA4CF200F10800A4FA7E
:103C10008CF283FA4CF3A2FA8CF3E3B9D1E90423D2
:103C200082FA4CF200F10800A4FA8CF283FA4CF309
:103C3000A2FA8CF37BB9D1E9062301F1200182FAC3
:103C40004CF200F10800A4FA8CF283FA4CF3A2FAC9
:103C50008CF3002BC6D0002A04BF04301A4612BAD7
:103C6000B2FA82F2FDE8024500EBD2007047D1E9DA
:103C7000002304F00305C4F100004FEAC50514F069
:103C8000040F91F840F00CFA05F562EA05021CBF3A
:103C900063EA050362464FF00004A9E750020401FD
:103CA000000001000000000000000100010101010E
:103CB0008000000000000100000000000000000083
:103CC000000001000000000012011001020000408D
:103CD0008B055800100001020001000009023E009F
:103CE00002010080320904000001020201000524E3
:103CF00000100104240206052406000107058103C3
:103D00000800FF09040100020A0000000705030281
:103D1000400005070582024000050000B03D000894
:103D2000543D0008303D0008040058002000000009
:103D30002003490000004600000058000000200059
:103D400000004300000044000000430000000000A9
:103D5000000000005803490000006E0000006600EB
:103D60000000690000006E000000650000006F00A8
:103D700000006E00000020000000540000006500FC
:103D8000000063000000680000006E0000006F008B
:103D900000006C0000006F00000067000000690078
:103DA000000065000000730000000000000000003B
:103DB0000403090400000000050D00088912000832
:103DC000F90F00080D0D0008250D00083D0D000835
:103DD000F50D00081D100008CD0E00080D0E00089E
:103DE000A90D0008E11300081D1400088D0E00083D
:103DF000C90F0008DD0F0008A1200000000002002C
:043E00003800002066
:103E04000000045095080008ED09000806000000B1
:103E14000000820040000001030040000001810016
:103E24000800000100000000000000000000000085
:103E340038000020000000000000000024030020DF
:103E44008C030020F40300200000000000000000A8
:103E5400000000000000000000000000000000005E
:103E6400000000000000000000000000000000004E
:103E7400000000000000000000000000000000003E
:103E8400000000000000000000000000000000002E
:103E9400000000000000000000000000000000001E
:103EA400000000000000000000000000000000000E
:103EB40000000000000000000000000000000000FE
:103EC40000000000000000000000000000000000EE
:103ED40000000000000000000000000000000000DE
:103EE40001000000000000000E33CDAB34126DE67B
:103EF400ECDE05000B0000000000000000000000E4
:103F040000000000000000000000000000000000AD
:103F1400000000000000000000000000000000009D
:103F2400000000000000000000000000000000008D
:103F3400000000000000000000000000000000007D
:0400000508000201EC
:00000001FF
